{
  "_format": "hh3-artifact-1",
  "contractName": "PunksVaultFactory",
  "sourceName": "contracts/PunksVaultFactory.sol",
  "abi": [
    {
      "inputs": [],
      "stateMutability": "nonpayable",
      "type": "constructor"
    },
    {
      "inputs": [],
      "name": "ZeroAddress",
      "type": "error"
    },
    {
      "anonymous": false,
      "inputs": [
        {
          "indexed": true,
          "internalType": "address",
          "name": "owner",
          "type": "address"
        },
        {
          "indexed": true,
          "internalType": "address",
          "name": "vault",
          "type": "address"
        }
      ],
      "name": "VaultDeployed",
      "type": "event"
    },
    {
      "inputs": [],
      "name": "IMPLEMENTATION",
      "outputs": [
        {
          "internalType": "address",
          "name": "",
          "type": "address"
        }
      ],
      "stateMutability": "view",
      "type": "function"
    },
    {
      "inputs": [
        {
          "internalType": "address[]",
          "name": "operators",
          "type": "address[]"
        }
      ],
      "name": "ensureMyVault",
      "outputs": [
        {
          "internalType": "address",
          "name": "vault",
          "type": "address"
        }
      ],
      "stateMutability": "nonpayable",
      "type": "function"
    },
    {
      "inputs": [
        {
          "internalType": "address",
          "name": "user",
          "type": "address"
        }
      ],
      "name": "ensureVault",
      "outputs": [
        {
          "internalType": "address",
          "name": "vault",
          "type": "address"
        }
      ],
      "stateMutability": "nonpayable",
      "type": "function"
    },
    {
      "inputs": [
        {
          "internalType": "address",
          "name": "user",
          "type": "address"
        }
      ],
      "name": "predictVault",
      "outputs": [
        {
          "internalType": "address",
          "name": "",
          "type": "address"
        }
      ],
      "stateMutability": "view",
      "type": "function"
    }
  ],
  "bytecode": "0x60a0806040523461011b57611ae5818101906001600160401b0382118383101761011f57602091839161073883393081520301905ff0801561013b576001600160a01b031660805260405163c47f002760e01b8152602060048201819052601560248301527f70756e6b737661756c74666163746f72792e65746800000000000000000000006044830152816064815f73a58e81fe9b61b5c3fe2afd33cf304c454abfc7cb5af1801561013b576100de575b6040516105f190816101478239608051818181610136015281816102cb0152818161034f01526104900152f35b6020903d602011610133575b601f8201601f19168101916001600160401b0383118284101761011f576020926040528101031261011b575f6100b1565b5f80fd5b634e487b7160e01b5f52604160045260245ffd5b3d91506100ea565b6040513d5f823e3d90fdfe60806040526004361015610011575f80fd5b5f5f3560e01c806327a4e1ab146102fa5780633a4741bd146102b65780635c466a48146100b35763e01fd21514610046575f80fd5b346100b05760203660031901126100b05761005f61031d565b6001600160a01b038116156100a15760405160209261008e929061008385846103ad565b82525f368137610463565b506040516001600160a01b039091168152f35b63d92e233d60e01b8252600482fd5b80fd5b50346102b25760203660031901126102b25760043567ffffffffffffffff81116102b257366023820112156102b257806004013567ffffffffffffffff81116102b2576024820191602436918360051b0101116102b25761011333610333565b803b61023a57506101233361043c565b6c5af43d3d93803e602a57fd5bf36021527f000000000000000000000000000000000000000000000000000000000000000060145273602c3d8160093d39f33d3d3d3d363d3d37363d7384526035600c85f591821561022d576021849052604051918491906001600160a01b0385169081337f09d75e12e349f79020715b0ea7b2c707e8acf1889b6d6f1337fce7f4e1b9e5c78680a3813b156102295783856101de8195938294635f3ddd7360e11b845233600485016103e3565b03925af1801561021e57610205575b50602091505b6040516001600160a01b039091168152f35b6102108380926103ad565b61021a57816101ed565b5080fd5b6040513d85823e3d90fd5b8380fd5b633011642584526004601cfd5b919080935061024e575b50602091506101f3565b6001600160a01b03821692833b156102b257610284935f9283604051809781958294630596bc6760e51b845233600485016103e3565b03925af19182156102a75760209215610244575f6102a1916103ad565b5f610244565b6040513d5f823e3d90fd5b5f80fd5b346102b2575f3660031901126102b2576040517f00000000000000000000000000000000000000000000000000000000000000006001600160a01b03168152602090f35b346102b25760203660031901126102b25760206101f361031861031d565b610333565b600435906001600160a01b03821682036102b257565b61033c9061043c565b6c5af43d3d93803e602a57fd5bf36021527f000000000000000000000000000000000000000000000000000000000000000060145273602c3d8160093d39f33d3d3d3d363d3d37363d735f526035600c205f60215260ff5f536035523060601b60015260155260555f205f60355290565b90601f8019910116810190811067ffffffffffffffff8211176103cf57604052565b634e487b7160e01b5f52604160045260245ffd5b6001600160a01b0390911681526040602082018190528101839052606001915f905b8082106104125750505090565b90919283359060018060a01b0382168092036102b257602081600193829352019401920190610405565b604051602081019160018060a01b031682526020815261045d6040826103ad565b51902090565b9061046d82610333565b803b6105b3575061047d8261043c565b6c5af43d3d93803e602a57fd5bf36021527f000000000000000000000000000000000000000000000000000000000000000060145273602c3d8160093d39f33d3d3d3d363d3d37363d735f526035600c5ff59182156105a6575f6021819052604051926001600160a01b03858116939192911690839082907f09d75e12e349f79020715b0ea7b2c707e8acf1889b6d6f1337fce7f4e1b9e5c79080a3823b156102b257635f3ddd7360e11b8452600484015260406024840152805160448401819052839160648301916020909101905f5b8181106105845750505091815f81819503925af180156102a757610574575b5090600190565b5f61057e916103ad565b5f61056d565b82516001600160a01b031684528694506020938401939092019160010161054e565b63301164255f526004601cfd5b915050905f9056fea264697066735822122004f9cc20b905885ceb5aa4318b127ab75705d850c1f4f8876930e113574e3a2d64736f6c634300082200336101406040523461015457611ae56020813803918261001d81610158565b93849283398101031261015457516001600160a01b03811680820361015457306080524660a05260a06100506040610158565b600a8152602081019069141d5b9adcd5985d5b1d60b21b82526100736040610158565b91600183526020830191603160f81b8352519020915190208160c0528060e052604051917f8b73c3c69bb8fe3d512ecc4cf759cc79239f7b179b0ffacaa9a75d522b39400f83526020830152604082015246606082015230608082015220610100521561014557610120525f805460ff60a01b1916600160a01b1790556040516119539081610192823960805181611348015260a0518161136b015260c051816113de015260e0518161140401526101005181611327015261012051818181610342015281816106790152610d070152f35b63d92e233d60e01b5f5260045ffd5b5f80fd5b6040519190601f01601f191682016001600160401b0381118382101761017d57604052565b634e487b7160e01b5f52604160045260245ffdfe6080604052600436101561004c575b361561004a575f3560e01c63bc197c81811463f23a6e6182141763150b7a0282141761004157633c10b94e5f526004601cfd5b6020526020603cf35b005b5f5f3560e01c806309ffbaaa14610d895780631626ba7e14610d365780632dd3100014610cf157806334fcd5be14610afe578063404ecd4f14610a9857806346e6e0f814610a0c578063558a7297146109d9578063576b2eed146109735780636b65eebb146109125780636d70f7ae146108d3578063795e6e59146108a457806384b0196e146107fb5780638da5cb5b146107d4578063944b9302146107ab578063a4dc291f1461073e578063b0e50a91146106e3578063b2d78ce014610667578063b61d27f61461055e578063bcc5dce5146103de578063be7bbae61461032d578063c094737c14610294578063c240fcd214610265578063d8f6a27a146101ee5763f78d9e491461015f575061000e565b346101ce5760203660031901126101ce57610178610efa565b61018133611738565b156101df5781906001600160a01b0316803b156101dc57818091600460405180948193633ccfd60b60e01b83525af180156101d1576101bd5750f35b816101c791611001565b6101ce5780f35b80fd5b6040513d84823e3d90fd5b50fd5b63ea8e4eb560e01b8252600482fd5b50346101ce576101fd36610f93565b9061020a93929333611738565b1561025657829360018060a01b031691823b1561025157604484928360405195869485936323165b7560e01b8552600485015260248401525af180156101d1576101bd5750f35b505050fd5b63ea8e4eb560e01b8352600483fd5b50346101ce57806003193601126101ce576020604051736ba6f2207e343923ba692e5cae646fb0f566db8d8152f35b50346101ce5760603660031901126101ce576102ae610efa565b906044356001600160a01b0381168103610329576102cb33611738565b156101df5790918291906001600160a01b0316803b15610325576040516322dca8bb60e21b81526001600160a01b03929092166004830152602480359083015282908290604490829084905af180156101d1576101bd5750f35b5050fd5b5080fd5b50346101ce5761033c36610fbd565b919291907f00000000000000000000000000000000000000000000000000000000000000006001600160a01b031633036103cf5782549360ff8560a01c166103c1576001600160a01b03169384156103b2576001600160a81b031916909317600160a01b17825590916103af919061179c565b80f35b63d92e233d60e01b8452600484fd5b62dc149f60e41b8452600484fd5b631966391b60e11b8352600483fd5b50346101ce5760203660031901126101ce576103f933611738565b1561054f57805460405163332599d560e01b81526001600160a01b03909116600482018190528291906020826024816da6fa31f5fc51c1640aac768667505afa91821561052357839261052e575b50813b156104be575b5073b47e3cd837ddf8e4c57f05d70ab865de6e193bbb3b156101dc576040516322dca8bb60e21b81526001600160a01b039190911660048083019190915235602482015281816044818373b47e3cd837ddf8e4c57f05d70ab865de6e193bbb5af180156101d1576101bd5750f35b60405190631d85641960e01b82526004820152602081602481866da6fa31f5fc51c1640aac768667505af180156105235715610450576105159060203d60201161051c575b61050d8183611001565b810190611719565b505f610450565b503d610503565b6040513d85823e3d90fd5b61054891925060203d60201161051c5761050d8183611001565b905f610447565b63ea8e4eb560e01b8152600490fd5b5060603660031901126101ce57610573610efa565b60243560443567ffffffffffffffff811161066357610596903690600401610f10565b845491949093916001600160a01b0316330361065457806040518587823780868101838152039085855af1926105ca611037565b931561062e5760405161062a956001600160a01b03909316937fcaf938de11c367272220bfd1d2baa99ca46665e7bc4d85f00adb51b90fe1fa9f93919283926106139284611604565b0390a2604051918291602083526020830190610f6f565b0390f35b6040516315fcd67560e01b815260206004820152806106506024820187610f6f565b0390fd5b6330cd747160e01b8152600490fd5b8380fd5b50346101ce5761067636610fbd565b917f00000000000000000000000000000000000000000000000000000000000000006001600160a01b031633036106d45783546001600160a01b039081169116036106c557906103af9161179c565b6330cd747160e01b8352600483fd5b631966391b60e11b8452600484fd5b506106ed36610f93565b906106fa93929333611738565b156102565791928392906001600160a01b0316803b156102515760248492604051948593849263048edfe960e11b845260048401525af180156101d1576101bd5750f35b50346101ce5761074d36610f93565b9061075a93929333611738565b15610256578361076a8495611768565b6001600160a01b031691823b15610251576044849283604051958694859363c44193c360e01b8552600485015260248401525af180156101d1576101bd5750f35b50346101ce57806003193601126101ce5760206040516da6fa31f5fc51c1640aac768667508152f35b50346101ce57806003193601126101ce57546040516001600160a01b039091168152602090f35b50346101ce57806003193601126101ce5761084f906108186116c6565b95969497909293610841604051998a9960ff60f81b168a5260e060208b015260e08a0190610f6f565b9088820360408a0152610f6f565b92606087015260018060a01b0316608086015260a085015283810360c0850152602080845192838152019301915b81811061088b575050500390f35b825184528594506020938401939092019160010161087d565b50346101ce57806003193601126101ce57602060405173b47e3cd837ddf8e4c57f05d70ab865de6e193bbb8152f35b50346101ce5760203660031901126101ce5760209060ff906040906001600160a01b036108fe610efa565b168152600184522054166040519015158152f35b5061091c36610f93565b9061092993929333611738565b1561025657836109398495611768565b6001600160a01b0316803b156102515760248492604051948593849263104c9fd360e31b845260048401525af180156101d1576101bd5750f35b50346101ce5760403660031901126101ce5761098d610efa565b61099633611738565b156101df5781906001600160a01b0316803b156101dc57818091602460405180948193637b777f8f60e11b8352833560048401525af180156101d1576101bd5750f35b50346101ce5760403660031901126101ce576109f3610efa565b6024358015158103610a08576103af91611631565b8280fd5b50346101ce5760803660031901126101ce57610a26610efa565b906064356001600160a01b0381169081900361032957610a4533611738565b156101df57819260018060a01b031690813b1561032557829160648392604051948593849263bf31196f60e01b84526024356004850152604435602485015260448401525af180156101d1576101bd5750f35b50346101ce5760403660031901126101ce57610ab2610efa565b610abb33611738565b156101df5781906001600160a01b0316803b156101dc578180916024604051809481936312f378c760e31b8352833560048401525af180156101d1576101bd5750f35b5060203660031901126101ce5760043567ffffffffffffffff811161032957610b2b903690600401610f3e565b82549092906001600160a01b0316330361065457610b4a83929361157d565b92610b586040519485611001565b828452601f19610b678461157d565b01825b818110610cde57505036819003605e190190825b84811015610c77578060051b82013583811215610c73578201610ba081611595565b906020810135918680604084019285610bb985876115a9565b9190826040519384928337810185815203925af1610bd5611037565b9015610c4e57849392610c2e7fcaf938de11c367272220bfd1d2baa99ca46665e7bc4d85f00adb51b90fe1fa9f93610c1e878e610c4596610c1860019c836115dc565b526115dc565b50610c2883611595565b926115a9565b604093919351938493898060a01b03169684611604565b0390a201610b7e565b6040516315fcd67560e01b815260206004820152908190610650906024830190610f6f565b8480fd5b85846040519182916020830160208452825180915260408401602060408360051b870101940192905b828210610caf57505050500390f35b91936001919395506020610cce8192603f198a82030186528851610f6f565b9601920192018594939192610ca0565b6060602082880181019190915201610b6a565b50346101ce57806003193601126101ce576040517f00000000000000000000000000000000000000000000000000000000000000006001600160a01b03168152602090f35b50346101ce5760403660031901126101ce576024359067ffffffffffffffff82116101ce576020610d76610d6d3660048601610f10565b90600435611076565b6040516001600160e01b03199091168152f35b5034610ea4576040366003190112610ea457610da3610efa565b60243591906001600160a01b038316808403610ea457610dc233611738565b15610eeb5715610edc5760405163f3f4370360e01b815230600482015292906001600160a01b0316602084602481845afa938415610e99575f94610ea8575b504790803b15610ea4575f8091600460405180948193633ccfd60b60e01b83525af18015610e9957610e84575b5047908103908111610e70578383948211610e68575b5080610e4e575050f35b8280929181925af1610e5e611037565b9015610c4e575080f35b90505f610e44565b634e487b7160e01b83526011600452602483fd5b610e919193505f90611001565b5f915f610e2e565b6040513d5f823e3d90fd5b5f80fd5b9093506020813d602011610ed4575b81610ec460209383611001565b81010312610ea45751925f610e01565b3d9150610eb7565b63d92e233d60e01b5f5260045ffd5b63ea8e4eb560e01b5f5260045ffd5b600435906001600160a01b0382168203610ea457565b9181601f84011215610ea45782359167ffffffffffffffff8311610ea45760208381860195010111610ea457565b9181601f84011215610ea45782359167ffffffffffffffff8311610ea4576020808501948460051b010111610ea457565b805180835260209291819084018484015e5f828201840152601f01601f1916010190565b6060906003190112610ea4576004356001600160a01b0381168103610ea457906024359060443590565b906040600319830112610ea4576004356001600160a01b0381168103610ea457916024359067ffffffffffffffff8211610ea457610ffd91600401610f3e565b9091565b90601f8019910116810190811067ffffffffffffffff82111761102357604052565b634e487b7160e01b5f52604160045260245ffd5b3d15611071573d9067ffffffffffffffff82116110235760405191611066601f8201601f191660200184611001565b82523d5f602084013e565b606090565b821561155e575b81838101601f19013561649261ffff30801c19040214611549575b505f926dd9ecebf3c23529de49815dac1c4c331461152c575b831561118b575b83156110d1575b505050155f03631626ba7e1760e01b90565b5f935090913a156110e8575b5050505f80806110bf565b909192503a3a5260203a3a386d378edcd5b5b0a24f5342d8c1048561fffffa503a511561112d575b5f5461112593906001600160a01b0316611831565b5f80806110dd565b60405192631626ba7e3a526d378edcd5b5b0a24f5342d8c1048560205260408052454561ffff011793845a106d378edcd5b5b0a24f5342d8c1048583141761118957611125943a906064601c3a923090fa506040529250611110565bfe5b90933093509091829085856114dd575b604051600119848401013560f01c95600e82019787918881038601986041198a016119015f526040816020378115826042018410178d6042601e20181761149a576d0a8f2e0cac888c2e8c2a6d2cedc560931b86529a9b508b9a6001198b019a828c8e378287016028600e8201526029600d8201515f1a0361143a575b50509b6f07fffffe000000000000010000000000909b9a9b515f1a1c5b8a515f1a602881146112575760019b909b019a65120100000001901c17611235565b509192939481889b6040839a999c9f61131d9c9f95605c967f20636f6e74656e74732c737472696e67206e616d652c737472696e670000000085527f2076657273696f6e2c75696e7432353620636861696e49642c61646472657373601c8601527f20766572696679696e67436f6e74726163742c627974657333322073616c7429603c8601528785013788370103018620835260e08320604052600116604201601e2092604119910301935b60405215611323575b5f546001600160a01b0316611831565b926110b8565b90507f00000000000000000000000000000000000000000000000000000000000000007f000000000000000000000000000000000000000000000000000000000000000030147f0000000000000000000000000000000000000000000000000000000000000000461416156113b3575b6719010000000000005f52601a52603a528360426018205f603a5261130d565b5060a06040517f8b73c3c69bb8fe3d512ecc4cf759cc79239f7b179b0ffacaa9a75d522b39400f81527f000000000000000000000000000000000000000000000000000000000000000060208201527f0000000000000000000000000000000000000000000000000000000000000000604082015246606082015230608082015220611393565b839e919360015f5b01906029600d83850301515f1a149082101115611463578f90600190611442565b60289f6028916f07fffffe00000000000001000000000094935080604081600e940398896041199101010185378a0101539d611218565b5050949750505061131d939650859194975f907f983e65e5148e570cd828ead231ee759a8d7958721a768f93bc4483ba005c32de5f5260205260405f2091611304565b94506114e76116c6565b509399945091604051996020815191012060408b01526020815191012060608a0152608089015260018060a01b031660a088015260c087015260e0860160405261119b565b925061154383838360018060a01b035f5416611831565b926110b1565b6040810135018035935060200191505f611098565b61773961ffff84190402810361107d5750637739000160e01b92915050565b67ffffffffffffffff81116110235760051b60200190565b356001600160a01b0381168103610ea45790565b903590601e1981360301821215610ea4570180359067ffffffffffffffff8211610ea457602001918136038313610ea457565b80518210156115f05760209160051b010190565b634e487b7160e01b5f52603260045260245ffd5b91926060938192845260406020850152816040850152848401375f828201840152601f01601f1916010190565b5f546001600160a01b031633036116b7576001600160a01b0316908115610edc57815f52600160205260ff60405f20541690151580911515146116b35760207f1a594081ae893ab78e67d9b9e843547318164322d32c65369d78a96172d9dc8f91835f526001825260405f2060ff1981541660ff8316179055604051908152a2565b5050565b6330cd747160e01b5f5260045ffd5b60408051600f60f81b92916116db8183611001565b600a825269141d5b9adcd5985d5b1d60b21b60208301526116fe81519182611001565b60018152603160f81b60208201529091469030905f90606090565b90816020910312610ea457516001600160a01b0381168103610ea45790565b5f546001600160a01b0391821691168114908115611754575090565b90505f52600160205260ff60405f20541690565b6001600160a01b0316736ba6f2207e343923ba692e5cae646fb0f566db8d1461178d57565b63787c136360e01b5f5260045ffd5b90915f5b8381101561182b576001600160a01b036117bf600583901b8501611595565b16908115610edc57816001925f528260205260ff60405f205416156117e6575b50016117a0565b805f528260205260405f208360ff198254161790557f1a594081ae893ab78e67d9b9e843547318164322d32c65369d78a96172d9dc8f6020604051858152a25f6117df565b50915050565b92939290915f906001600160a01b03831615611914576040519160048301602484019560448501916064860193873b1561189b5750936064938a80948a9b9c9460209b9a9998630b135d3f60e11b8a525260408a52523701915afa9051630b135d3f60e11b141690565b9993505093955050806040146118e8576041146118b85750505050565b60408092939496508101355f1a60205281375b5f526020600160805f825afa511860601b3d11915f606052604052565b5060208082013560ff81901c601b0190915290356040526001600160ff1b0316606052919350906118cb565b505f945050505056fea26469706673582212208dbf4019c3b558396cbed15d9b66101087bb26cfcb02f2680a834cb4c75d73c364736f6c63430008220033",
  "linkReferences": {},
  "deployedLinkReferences": {},
  "immutableReferences": {
    "3769": [
      {
        "length": 32,
        "start": 310
      },
      {
        "length": 32,
        "start": 715
      },
      {
        "length": 32,
        "start": 847
      },
      {
        "length": 32,
        "start": 1168
      }
    ]
  },
  "inputSourceName": "project/contracts/PunksVaultFactory.sol",
  "buildInfoId": "solc-0_8_34-e6fc037eef19b31e297f9f318eeab607928b467e"
}