{
  "_format": "hh3-artifact-1",
  "contractName": "PunksMarket",
  "sourceName": "contracts/PunksMarket.sol",
  "abi": [
    {
      "inputs": [],
      "stateMutability": "nonpayable",
      "type": "constructor"
    },
    {
      "inputs": [],
      "name": "AdjustmentTooLarge",
      "type": "error"
    },
    {
      "inputs": [],
      "name": "BidNotActive",
      "type": "error"
    },
    {
      "inputs": [],
      "name": "FailedWithdrawal",
      "type": "error"
    },
    {
      "inputs": [],
      "name": "IncorrectPayment",
      "type": "error"
    },
    {
      "inputs": [],
      "name": "InvalidAmount",
      "type": "error"
    },
    {
      "inputs": [],
      "name": "InvalidColorCountRange",
      "type": "error"
    },
    {
      "inputs": [],
      "name": "InvalidColorMask",
      "type": "error"
    },
    {
      "inputs": [],
      "name": "InvalidPixelCountRange",
      "type": "error"
    },
    {
      "inputs": [],
      "name": "InvalidPunkId",
      "type": "error"
    },
    {
      "inputs": [],
      "name": "InvalidTraitMask",
      "type": "error"
    },
    {
      "inputs": [],
      "name": "ListingNotValid",
      "type": "error"
    },
    {
      "inputs": [
        {
          "internalType": "uint96",
          "name": "expectedListingWei",
          "type": "uint96"
        },
        {
          "internalType": "uint256",
          "name": "actualListingWei",
          "type": "uint256"
        }
      ],
      "name": "ListingPriceMismatch",
      "type": "error"
    },
    {
      "inputs": [],
      "name": "ListingPriceTooHigh",
      "type": "error"
    },
    {
      "inputs": [],
      "name": "NoBalanceToWithdraw",
      "type": "error"
    },
    {
      "inputs": [],
      "name": "NotBidder",
      "type": "error"
    },
    {
      "inputs": [],
      "name": "PunkExcluded",
      "type": "error"
    },
    {
      "inputs": [],
      "name": "PunkNotMatched",
      "type": "error"
    },
    {
      "inputs": [],
      "name": "ReentrancyGuardReentrantCall",
      "type": "error"
    },
    {
      "inputs": [],
      "name": "TooManyIds",
      "type": "error"
    },
    {
      "inputs": [],
      "name": "UnexpectedEtherSender",
      "type": "error"
    },
    {
      "inputs": [],
      "name": "ZeroAddress",
      "type": "error"
    },
    {
      "anonymous": false,
      "inputs": [
        {
          "indexed": true,
          "internalType": "uint256",
          "name": "bidId",
          "type": "uint256"
        },
        {
          "indexed": true,
          "internalType": "uint256",
          "name": "punkId",
          "type": "uint256"
        },
        {
          "indexed": true,
          "internalType": "address",
          "name": "seller",
          "type": "address"
        },
        {
          "indexed": false,
          "internalType": "address",
          "name": "bidder",
          "type": "address"
        },
        {
          "indexed": false,
          "internalType": "address",
          "name": "caller",
          "type": "address"
        },
        {
          "indexed": false,
          "internalType": "uint96",
          "name": "listingWei",
          "type": "uint96"
        },
        {
          "indexed": false,
          "internalType": "uint96",
          "name": "bidWei",
          "type": "uint96"
        },
        {
          "indexed": false,
          "internalType": "uint96",
          "name": "settlementWei",
          "type": "uint96"
        }
      ],
      "name": "BidAccepted",
      "type": "event"
    },
    {
      "anonymous": false,
      "inputs": [
        {
          "indexed": true,
          "internalType": "uint256",
          "name": "bidId",
          "type": "uint256"
        },
        {
          "indexed": false,
          "internalType": "uint96",
          "name": "newBidWei",
          "type": "uint96"
        }
      ],
      "name": "BidAdjusted",
      "type": "event"
    },
    {
      "anonymous": false,
      "inputs": [
        {
          "indexed": true,
          "internalType": "uint256",
          "name": "bidId",
          "type": "uint256"
        }
      ],
      "name": "BidCancelled",
      "type": "event"
    },
    {
      "anonymous": false,
      "inputs": [
        {
          "indexed": true,
          "internalType": "uint256",
          "name": "bidId",
          "type": "uint256"
        },
        {
          "indexed": true,
          "internalType": "address",
          "name": "bidder",
          "type": "address"
        },
        {
          "indexed": false,
          "internalType": "uint96",
          "name": "bidWei",
          "type": "uint96"
        },
        {
          "indexed": false,
          "internalType": "uint96",
          "name": "settlementWei",
          "type": "uint96"
        },
        {
          "components": [
            {
              "internalType": "uint256",
              "name": "requiredTraitMask",
              "type": "uint256"
            },
            {
              "internalType": "uint256",
              "name": "forbiddenTraitMask",
              "type": "uint256"
            },
            {
              "internalType": "uint256",
              "name": "anyOfTraitMask",
              "type": "uint256"
            },
            {
              "internalType": "uint256",
              "name": "requiredColorMask",
              "type": "uint256"
            },
            {
              "internalType": "uint256",
              "name": "forbiddenColorMask",
              "type": "uint256"
            },
            {
              "internalType": "uint256",
              "name": "anyOfColorMask",
              "type": "uint256"
            },
            {
              "internalType": "uint16",
              "name": "minPixelCount",
              "type": "uint16"
            },
            {
              "internalType": "uint16",
              "name": "maxPixelCount",
              "type": "uint16"
            },
            {
              "internalType": "uint8",
              "name": "minColorCount",
              "type": "uint8"
            },
            {
              "internalType": "uint8",
              "name": "maxColorCount",
              "type": "uint8"
            }
          ],
          "indexed": false,
          "internalType": "struct Punks.Filter",
          "name": "criteria",
          "type": "tuple"
        },
        {
          "indexed": false,
          "internalType": "uint16[]",
          "name": "includeIds",
          "type": "uint16[]"
        },
        {
          "indexed": false,
          "internalType": "uint16[]",
          "name": "excludeIds",
          "type": "uint16[]"
        }
      ],
      "name": "BidPlaced",
      "type": "event"
    },
    {
      "anonymous": false,
      "inputs": [
        {
          "indexed": true,
          "internalType": "address",
          "name": "account",
          "type": "address"
        },
        {
          "indexed": false,
          "internalType": "uint256",
          "name": "amount",
          "type": "uint256"
        }
      ],
      "name": "Credited",
      "type": "event"
    },
    {
      "anonymous": false,
      "inputs": [
        {
          "indexed": true,
          "internalType": "uint256",
          "name": "punkId",
          "type": "uint256"
        },
        {
          "indexed": true,
          "internalType": "address",
          "name": "seller",
          "type": "address"
        },
        {
          "indexed": true,
          "internalType": "address",
          "name": "recipient",
          "type": "address"
        },
        {
          "indexed": false,
          "internalType": "address",
          "name": "caller",
          "type": "address"
        },
        {
          "indexed": false,
          "internalType": "uint96",
          "name": "listingWei",
          "type": "uint96"
        }
      ],
      "name": "PunkPurchased",
      "type": "event"
    },
    {
      "anonymous": false,
      "inputs": [
        {
          "indexed": true,
          "internalType": "address",
          "name": "account",
          "type": "address"
        },
        {
          "indexed": false,
          "internalType": "uint256",
          "name": "amount",
          "type": "uint256"
        }
      ],
      "name": "Withdrawal",
      "type": "event"
    },
    {
      "inputs": [],
      "name": "PUNKS_DATA",
      "outputs": [
        {
          "internalType": "contract IPunksDataMatcher",
          "name": "",
          "type": "address"
        }
      ],
      "stateMutability": "view",
      "type": "function"
    },
    {
      "inputs": [],
      "name": "PUNKS_V1",
      "outputs": [
        {
          "internalType": "contract ICryptoPunksMarket",
          "name": "",
          "type": "address"
        }
      ],
      "stateMutability": "view",
      "type": "function"
    },
    {
      "inputs": [
        {
          "internalType": "uint256",
          "name": "bidId",
          "type": "uint256"
        },
        {
          "internalType": "uint16",
          "name": "punkId",
          "type": "uint16"
        },
        {
          "internalType": "uint96",
          "name": "expectedListingWei",
          "type": "uint96"
        }
      ],
      "name": "acceptBid",
      "outputs": [],
      "stateMutability": "nonpayable",
      "type": "function"
    },
    {
      "inputs": [
        {
          "internalType": "uint256",
          "name": "bidId",
          "type": "uint256"
        },
        {
          "internalType": "uint96",
          "name": "weiToAdjust",
          "type": "uint96"
        },
        {
          "internalType": "bool",
          "name": "increase",
          "type": "bool"
        }
      ],
      "name": "adjustBidPrice",
      "outputs": [],
      "stateMutability": "payable",
      "type": "function"
    },
    {
      "inputs": [
        {
          "internalType": "address",
          "name": "",
          "type": "address"
        }
      ],
      "name": "balances",
      "outputs": [
        {
          "internalType": "uint256",
          "name": "",
          "type": "uint256"
        }
      ],
      "stateMutability": "view",
      "type": "function"
    },
    {
      "inputs": [
        {
          "internalType": "uint256",
          "name": "bidId",
          "type": "uint256"
        }
      ],
      "name": "bids",
      "outputs": [
        {
          "internalType": "uint96",
          "name": "bidWei",
          "type": "uint96"
        },
        {
          "internalType": "uint96",
          "name": "settlementWei",
          "type": "uint96"
        },
        {
          "internalType": "address",
          "name": "bidder",
          "type": "address"
        }
      ],
      "stateMutability": "view",
      "type": "function"
    },
    {
      "inputs": [
        {
          "internalType": "uint16",
          "name": "punkId",
          "type": "uint16"
        },
        {
          "internalType": "uint256",
          "name": "fromId",
          "type": "uint256"
        },
        {
          "internalType": "uint256",
          "name": "count",
          "type": "uint256"
        }
      ],
      "name": "bidsMatchingPunk",
      "outputs": [
        {
          "internalType": "uint256[]",
          "name": "bidIds",
          "type": "uint256[]"
        },
        {
          "internalType": "uint256",
          "name": "nextId",
          "type": "uint256"
        }
      ],
      "stateMutability": "view",
      "type": "function"
    },
    {
      "inputs": [
        {
          "internalType": "uint16",
          "name": "punkId",
          "type": "uint16"
        },
        {
          "internalType": "uint96",
          "name": "expectedListingWei",
          "type": "uint96"
        },
        {
          "internalType": "address",
          "name": "recipient",
          "type": "address"
        }
      ],
      "name": "buyPunk",
      "outputs": [],
      "stateMutability": "payable",
      "type": "function"
    },
    {
      "inputs": [
        {
          "internalType": "uint256",
          "name": "bidId",
          "type": "uint256"
        }
      ],
      "name": "cancelBid",
      "outputs": [],
      "stateMutability": "nonpayable",
      "type": "function"
    },
    {
      "inputs": [
        {
          "internalType": "uint256",
          "name": "bidId",
          "type": "uint256"
        }
      ],
      "name": "getBidCriteria",
      "outputs": [
        {
          "components": [
            {
              "internalType": "uint256",
              "name": "requiredTraitMask",
              "type": "uint256"
            },
            {
              "internalType": "uint256",
              "name": "forbiddenTraitMask",
              "type": "uint256"
            },
            {
              "internalType": "uint256",
              "name": "anyOfTraitMask",
              "type": "uint256"
            },
            {
              "internalType": "uint256",
              "name": "requiredColorMask",
              "type": "uint256"
            },
            {
              "internalType": "uint256",
              "name": "forbiddenColorMask",
              "type": "uint256"
            },
            {
              "internalType": "uint256",
              "name": "anyOfColorMask",
              "type": "uint256"
            },
            {
              "internalType": "uint16",
              "name": "minPixelCount",
              "type": "uint16"
            },
            {
              "internalType": "uint16",
              "name": "maxPixelCount",
              "type": "uint16"
            },
            {
              "internalType": "uint8",
              "name": "minColorCount",
              "type": "uint8"
            },
            {
              "internalType": "uint8",
              "name": "maxColorCount",
              "type": "uint8"
            }
          ],
          "internalType": "struct Punks.Filter",
          "name": "",
          "type": "tuple"
        }
      ],
      "stateMutability": "view",
      "type": "function"
    },
    {
      "inputs": [
        {
          "internalType": "uint256",
          "name": "bidId",
          "type": "uint256"
        }
      ],
      "name": "getBidExcludeIds",
      "outputs": [
        {
          "internalType": "uint16[]",
          "name": "",
          "type": "uint16[]"
        }
      ],
      "stateMutability": "view",
      "type": "function"
    },
    {
      "inputs": [
        {
          "internalType": "uint256",
          "name": "bidId",
          "type": "uint256"
        }
      ],
      "name": "getBidIncludeIds",
      "outputs": [
        {
          "internalType": "uint16[]",
          "name": "",
          "type": "uint16[]"
        }
      ],
      "stateMutability": "view",
      "type": "function"
    },
    {
      "inputs": [],
      "name": "lastBidId",
      "outputs": [
        {
          "internalType": "uint256",
          "name": "",
          "type": "uint256"
        }
      ],
      "stateMutability": "view",
      "type": "function"
    },
    {
      "inputs": [
        {
          "internalType": "uint256",
          "name": "bidId",
          "type": "uint256"
        },
        {
          "internalType": "uint16",
          "name": "punkId",
          "type": "uint16"
        }
      ],
      "name": "matchesPunk",
      "outputs": [
        {
          "internalType": "bool",
          "name": "",
          "type": "bool"
        }
      ],
      "stateMutability": "view",
      "type": "function"
    },
    {
      "inputs": [
        {
          "internalType": "uint96",
          "name": "bidWei",
          "type": "uint96"
        },
        {
          "internalType": "uint96",
          "name": "settlementWei",
          "type": "uint96"
        },
        {
          "components": [
            {
              "internalType": "uint256",
              "name": "requiredTraitMask",
              "type": "uint256"
            },
            {
              "internalType": "uint256",
              "name": "forbiddenTraitMask",
              "type": "uint256"
            },
            {
              "internalType": "uint256",
              "name": "anyOfTraitMask",
              "type": "uint256"
            },
            {
              "internalType": "uint256",
              "name": "requiredColorMask",
              "type": "uint256"
            },
            {
              "internalType": "uint256",
              "name": "forbiddenColorMask",
              "type": "uint256"
            },
            {
              "internalType": "uint256",
              "name": "anyOfColorMask",
              "type": "uint256"
            },
            {
              "internalType": "uint16",
              "name": "minPixelCount",
              "type": "uint16"
            },
            {
              "internalType": "uint16",
              "name": "maxPixelCount",
              "type": "uint16"
            },
            {
              "internalType": "uint8",
              "name": "minColorCount",
              "type": "uint8"
            },
            {
              "internalType": "uint8",
              "name": "maxColorCount",
              "type": "uint8"
            }
          ],
          "internalType": "struct Punks.Filter",
          "name": "criteria",
          "type": "tuple"
        },
        {
          "internalType": "uint16[]",
          "name": "includeIds",
          "type": "uint16[]"
        },
        {
          "internalType": "uint16[]",
          "name": "excludeIds",
          "type": "uint16[]"
        }
      ],
      "name": "placeBid",
      "outputs": [
        {
          "internalType": "uint256",
          "name": "bidId",
          "type": "uint256"
        }
      ],
      "stateMutability": "payable",
      "type": "function"
    },
    {
      "inputs": [],
      "name": "withdraw",
      "outputs": [],
      "stateMutability": "nonpayable",
      "type": "function"
    },
    {
      "stateMutability": "payable",
      "type": "receive"
    }
  ],
  "bytecode": "0x60c080604052346101315760017f9b779b17422d0df92223018b32b4d1fa46e071723d6817e2486d003becc55f0055736ba6f2207e343923ba692e5cae646fb0f566db8d608052739cf9c8ea737a7d5157d3f4282ace30880a7a117c60a05263c47f002760e01b8152602060048201819052600f60248301526e0e0eadcd6e6dac2e4d6cae85ccae8d608b1b6044830152816064815f73a58e81fe9b61b5c3fe2afd33cf304c454abfc7cb5af18015610151576100f4575b6040516124f2908161015d8239608051818181610aca015281816115cc015281816117b20152611a68015260a0518181816105a60152611c610152f35b6020903d602011610149575b601f8201601f19168101916001600160401b038311828410176101355760209260405281010312610131575f6100b7565b5f80fd5b634e487b7160e01b5f52604160045260245ffd5b3d9150610100565b6040513d5f823e3d90fdfe60806040526004361015610022575b3615610018575f80fd5b6100206115ca565b005b5f3560e01c806313df1a881461012157806327e235e31461011c5780633ccfd60b146101175780634423c5f1146101125780634b9210d51461010d5780634ed9a045146101085780635016c9a6146101035780636724903b146100fe5780636f50c47e146100f9578063707473fe146100f45780639264bc50146100ef5780639703ef35146100ea5780639d717f93146100e5578063a422bb0e146100e0578063ef78e28b146100db5763f0a2c2450361000e57610ab5565b610a98565b610a19565b610932565b610899565b61086c565b6107d2565b61072a565b61064f565b610612565b610591565b610439565b6103d0565b61032f565b6102eb565b610160565b602435906001600160601b038216820361013c57565b5f80fd5b604435906001600160601b038216820361013c57565b8015150361013c57565b606036600319011261013c57600435610177610126565b6044359061018482610156565b61018c61160b565b6001600160601b03811680156102cb576101a584611643565b90831561026f57803403610260577fb772a95320428e15143607672507dd547143e745168e226310a69a614c08468d936102166101f5610237956101f086546001600160601b031690565b610b2d565b84546bffffffffffffffffffffffff19166001600160601b03821617909455565b15610250575b506040516001600160601b0390911681529081906020820190565b0390a261002060015f51602061249d5f395f51905f5255565b61025a9033611688565b5f61021c565b63569e8c1160e01b5f5260045ffd5b929192346102605781546001600160601b031692838210156102bc576102166101f57fb772a95320428e15143607672507dd547143e745168e226310a69a614c08468d9661023796610b0d565b634b943bf960e11b5f5260045ffd5b63162908e360e11b5f5260045ffd5b6001600160a01b0381160361013c57565b3461013c57602036600319011261013c57600435610308816102da565b60018060a01b03165f525f602052602060405f2054604051908152f35b5f91031261013c57565b3461013c575f36600319011261013c5761034761160b565b335f525f60205260405f205480156103c157335f908152602081905260408120555f80808084335af1610378610bb5565b50156103b25760405190815233907f7fcf532c15f0a6db0bd6d0e038bea71d30d808c7d98cb3bf7268a95bf5081b65908060208101610237565b63a124823560e01b5f5260045ffd5b63177b02e160e31b5f5260045ffd5b3461013c57602036600319011261013c576004355f526002602052606060405f208054906001808060a01b03910154166001600160601b03604051928181168452841c1660208301526040820152f35b61ffff81160361013c57565b359061043782610420565b565b3461013c57606036600319011261013c5760243560043561045982610420565b610461610140565b9061046a61160b565b805f5260026020527f3157ac2283fa8663f1859788d2d9c18f8bed5485bb7f20094d2e0801c165a2e061ffff6001600160601b0361057b60405f20956104af88611bc8565b6104c16104bc8989611c08565b6116da565b6104ff60018060a01b0360018901541697548885821695869260601c16936104f96104f48b5f52600260205260405f2090565b610c2a565b8b611a44565b61050c8395929533611688565b61052e61052861051c8385610b0d565b6001600160601b031690565b8a611688565b604080516001600160a01b039a8b1681523360208201526001600160601b0392831691810191909152918116606083015291909116608082015295909116959091169390819060a0820190565b0390a460015f51602061249d5f395f51905f5255005b3461013c575f36600319011261013c576040517f00000000000000000000000000000000000000000000000000000000000000006001600160a01b03168152602090f35b60206040818301928281528451809452019201905f5b8181106105f85750505090565b825161ffff168452602093840193909201916001016105eb565b3461013c57602036600319011261013c576004355f52600260205261064b61063f600a60405f2001610c75565b604051918291826105d5565b0390f35b606036600319011261013c5760043561066781610420565b61066f610126565b9060443561067c816102da565b61068461160b565b61068d82611bc8565b6001600160a01b03811692831561071b576001600160601b03811634036102605760406106df61ffff937ff2d41a2b1d1cb36c128228ba3821a6d6cf2d01e7bd1e9194fd281cc416b5bd9a938661178e565b82513381526001600160601b0390911660208201526001600160a01b039091169490931692a461002060015f51602061249d5f395f51905f5255565b63d92e233d60e01b5f5260045ffd5b3461013c57606036600319011261013c5761075660043561074a81610420565b6024356044359161105a565b9060405190604082019260408352815180945260206060840192015f945b80861061078957505082935060208301520390f35b90926020806001928651815201940195019490610774565b9181601f8401121561013c5782359167ffffffffffffffff831161013c576020808501948460051b01011161013c57565b6101c036600319011261013c576004356001600160601b038116810361013c576107fa610126565b61014036604319011261013c576101843567ffffffffffffffff811161013c576108289036906004016107a1565b9190926101a4359267ffffffffffffffff841161013c5761064b9461085461085c9536906004016107a1565b949093611411565b6040519081529081906020820190565b3461013c57602036600319011261013c576004355f52600260205261064b61063f600960405f2001610c75565b3461013c57602036600319011261013c576004356108b561160b565b6108be81611643565b546001600160601b038082169160601c16810180911161092d576108f690825f5260026020526108f060405f20610c2a565b33611688565b7fc1546e394b1975212fe013e7e6995653585f44e568c407d1157483f7d4b945815f80a260015f51602061249d5f395f51905f5255005b610af9565b3461013c57604036600319011261013c5761096e60243560043561095582610420565b5f52600260205260405f2061096982611bc8565b611c08565b60048110156109835760405190158152602090f35b634e487b7160e01b5f52602160045260245ffd5b6104379092919261012080610140830195805184526020810151602085015260408101516040850152606081015160608501526080810151608085015260a081015160a08501526109f360c082015160c086019061ffff169052565b60e08181015161ffff16908501526101008181015160ff1690850152015160ff16910152565b3461013c57602036600319011261013c576004355f610120604051610a3d81610b61565b8281528260208201528260408201528260608201528260808201528260a08201528260c08201528260e08201528261010082015201525f52600260205261064b610a8c600260405f2001611546565b60405191829182610997565b3461013c575f36600319011261013c576020600154604051908152f35b3461013c575f36600319011261013c576040517f00000000000000000000000000000000000000000000000000000000000000006001600160a01b03168152602090f35b634e487b7160e01b5f52601160045260245ffd5b906001600160601b03809116911603906001600160601b03821161092d57565b906001600160601b03809116911601906001600160601b03821161092d57565b634e487b7160e01b5f52604160045260245ffd5b610140810190811067ffffffffffffffff821117610b7e57604052565b610b4d565b90601f8019910116810190811067ffffffffffffffff821117610b7e57604052565b6040519061043761014083610b83565b3d15610bef573d9067ffffffffffffffff8211610b7e5760405191610be4601f8201601f191660200184610b83565b82523d5f602084013e565b606090565b80545f825580610c02575050565b600f0160041c905f5260205f205f5b828110610c1d57505050565b5f82820155600101610c11565b600a610437915f81555f60018201555f60028201555f60038201555f60048201555f60058201555f60068201555f60078201555f6008820155610c6f60098201610bf4565b01610bf4565b60405181548082529092918390610c9360208301915f5260205f2090565b925f905b80600f830110610ead57610437945491818110610e98575b818110610e7f575b818110610e67575b818110610e4e575b818110610e35575b818110610e1c575b818110610e03575b818110610dea575b818110610dd1575b818110610db8575b818110610d9f575b818110610d86575b818110610d6d575b818110610d54575b818110610d3b575b10610d2d575b500383610b83565b60f01c81526020015f610d25565b60e083901c61ffff168452926001906020019301610d1f565b60d083901c61ffff168452926001906020019301610d17565b60c083901c61ffff168452926001906020019301610d0f565b60b083901c61ffff168452926001906020019301610d07565b60a083901c61ffff168452926001906020019301610cff565b609083901c61ffff168452926001906020019301610cf7565b608083901c61ffff168452926001906020019301610cef565b607083901c61ffff168452926001906020019301610ce7565b606083901c61ffff168452926001906020019301610cdf565b605083901c61ffff168452926001906020019301610cd7565b604083901c61ffff168452926001906020019301610ccf565b603083901c61ffff168452926001906020019301610cc7565b602083811c61ffff1685529093600191019301610cbf565b601083901c61ffff168452926001906020019301610cb7565b61ffff83168452926001906020019301610caf565b916010919350610200600191610fa38754610ecf8361ffff831661ffff169052565b80861c61ffff166020840152602081901c61ffff166040840152603081901c61ffff166060840152604081901c61ffff166080840152605081901c61ffff1660a0840152606081901c61ffff1660c0840152607081901c61ffff1660e0840152608081901c61ffff16610100840152609081901c61ffff1661012084015260a081901c61ffff1661014084015260b081901c61ffff1661016084015260c081901c61ffff1661018084015260d081901c61ffff166101a084015260e081901c61ffff166101c084015260f01c6101e0830152565b019401920185929391610c97565b67ffffffffffffffff8111610b7e5760051b60200190565b60405190610fd8602083610b83565b5f808352366020840137565b90610fee82610fb1565b610ffb6040519182610b83565b828152809261100c601f1991610fb1565b0190602036910137565b9190820391821161092d57565b6004111561098357565b634e487b7160e01b5f52603260045260245ffd5b80518210156110555760209160051b010190565b61102d565b929161106584611bc8565b600154821561113c575b8115908115611133575b8115611129575b5061111857818111611111575b61109681610fe4565b935f905f5b8381106110bf57505084528082036110b35750505f90565b6110bc91611016565b90565b6110c98186611016565b6110df83610969835f52600260205260405f2090565b6110e881611023565b156110f7575b5060010161109b565b83600192949161110884938b611041565b520192906110ee565b508061108d565b50509050611124610fc9565b905f90565b905082115f611080565b83159150611079565b91508161106f565b9190820180921161092d57565b60ff81160361013c57565b359061043782611151565b91908261014091031261013c576111f4610120611182610ba5565b93803585526020810135602086015260408101356040860152606081013560608601526080810135608086015260a081013560a08601526111c560c0820161042c565b60c08601526111d660e0820161042c565b60e08601526111e8610100820161115c565b6101008601520161115c565b610120830152565b356110bc81610420565b356110bc81611151565b906112d1610120600661043794843581556020850135600182015560408501356002820155606085013560038201556080850135600482015560a08501356005820155019261127661126460c083016111fc565b855461ffff191661ffff909116178555565b61129f61128560e083016111fc565b855463ffff0000191660109190911b63ffff000016178555565b6112cb6112af6101008301611206565b855464ff00000000191660209190911b64ff0000000016178555565b01611206565b65ff000000000082549160281b169065ff00000000001916179055565b916020908281520191905f5b8181106113075750505090565b90919260208060019261ffff873561131e81610420565b1681520194019291016112fa565b9593916113e3610120611402956001600160601b036113ee94816110bc9d9b97168c521660208b0152803560408b0152602081013560608b0152604081013560808b0152606081013560a08b0152608081013560c08b015260a081013560e08b01526113a961139d60c0830161042c565b61ffff166101008c0152565b6113c26113b860e0830161042c565b61ffff168b840152565b6113dd6113d2610100830161115c565b60ff166101408c0152565b0161115c565b60ff16610160880152565b6101c06101808701526101c08601916112ee565b926101a08185039101526112ee565b93919594906001600160601b03851680156102cb5761143a906001600160601b03831690611144565b34036102605760408411801561153c575b61152d576115286044927fd8bb5a676700cff4cb457de6824c85d88e39377d31b6f9579f54ea4440c38f11946114896114843687611167565b611d24565b60018054019661149888600155565b879a61151a600a6114b18b5f52600260205260405f2090565b80546001600160601b038e166001600160c01b03199091161760608a901b6bffffffffffffffffffffffff60601b161781556001810180546001600160a01b031916331790556115048a60028301611210565b611512600982018686611e0c565b018585611e0c565b604051968796339b8861132c565b0390a3565b633b91e02960e11b5f5260045ffd5b506040821161144b565b906104376115bf6006611557610ba5565b8554815260018601546020820152600286015460408201526003860154606082015260048601546080820152600586015460a082015294015461ffff811660c086015261ffff601082901c1660e086015260ff602082901c1661010086015260281c60ff1690565b60ff16610120840152565b7f00000000000000000000000000000000000000000000000000000000000000006001600160a01b031633036115fc57565b6338695c1960e21b5f5260045ffd5b60025f51602061249d5f395f51905f5254146116345760025f51602061249d5f395f51905f5255565b633ee5aeb560e01b5f5260045ffd5b5f52600260205260405f209060018060a01b03600183015416801561167957330361166a57565b6301e1a84160e11b5f5260045ffd5b630898423760e21b5f5260045ffd5b90801580156116c9575b6116c5575f808080846001600160a01b03871662017318f16116b2610bb5565b50156116bc575050565b61043791611e73565b5050565b506001600160a01b03821615611692565b90600482101561098357811561172b57506116f481611023565b600181146116795780611708600292611023565b1461171c57633f62ff9f60e01b5f5260045ffd5b635c53783360e11b5f5260045ffd5b9050565b908160a091031261013c57805161174581610156565b91602082015191604081015161175a816102da565b91608060608301519201516110bc816102da565b6040513d5f823e3d90fd5b9081602091031261013c57516110bc816102da565b60405163088f11f360e01b815261ffff821660048201529093916001600160a01b037f0000000000000000000000000000000000000000000000000000000000000000169160a081602481865afa918215611907575f925f935f935f92611a09575b50159081156119f7575b81156119e3575b508015611970575b611961576001600160601b038116820361194357506001600160601b0316936001600160601b038511611934578195833b1561013c5760405163104c9fd360e31b815261ffff821660048201525f8180602481015b03818a895af1801561190757611920575b50833b1561013c57604051633ccfd60b60e01b81525f8160048183895af180156119075761190c575b50833b1561013c576040516322dca8bb60e21b81526001600160a01b0392909216600483015261ffff166024820152915f908390604490829084905af1908115611907576104379285926118ed575b50611688565b806118fb5f61190193610b83565b80610325565b5f6118e7565b61176e565b806118fb5f61191a93610b83565b5f611898565b806118fb5f61192e93610b83565b5f61186f565b632603999760e11b5f5260045ffd5b63f8c892ad60e01b5f526001600160601b031660045260245260445ffd5b63d6ea415160e01b5f5260045ffd5b50604051630b02f02d60e31b815261ffff88166004820152602081602481885afa908115611907575f916119b4575b506001600160a01b0384811691161415611809565b6119d6915060203d6020116119dc575b6119ce8183610b83565b810190611779565b5f61199f565b503d6119c4565b6001600160a01b031630141590505f611801565b6001600160a01b0385161591506117fa565b9294505050611a30915060a03d60a011611a3d575b611a288183610b83565b81019061172f565b919490939092505f6117f0565b503d611a1e565b60405163088f11f360e01b815261ffff821660048201529094926001600160a01b037f000000000000000000000000000000000000000000000000000000000000000016929160a081602481875afa928315611907575f935f945f935f92611b9d575b5015908115611b8b575b8115611b77575b508015611b14575b611961576001600160601b038116820361194357506001600160601b0380911695168511611934578195833b1561013c5760405163104c9fd360e31b815261ffff821660048201525f81806024810161185e565b50604051630b02f02d60e31b815261ffff89166004820152602081602481895afa908115611907575f91611b58575b506001600160a01b0385811691161415611ac0565b611b71915060203d6020116119dc576119ce8183610b83565b5f611b43565b6001600160a01b031630141590505f611ab8565b6001600160a01b038616159150611ab1565b9295505050611bbb915060a03d60a011611a3d57611a288183610b83565b919590939092505f611aa7565b61ffff61271091161015611bd857565b63753ddd0360e01b5f5260045ffd5b9190918054831015611055575f52601e60205f208360041c019260011b1690565b60018101546001600160a01b031615611d1d57600a81018054905f5b828110611cf157505050600981018054905f5b828110611cb8575050151580611c9e575b611c9757611c8a91611c5f6002611c869301611546565b7f000000000000000000000000000000000000000000000000000000000000000090611fc3565b1590565b611c92575f90565b600390565b5050600390565b50611cb3611cae60028301611546565b611ee4565b611c48565b611cd3611cc58284611be7565b905461ffff9160031b1c1690565b61ffff808716911614611ce857600101611c37565b50505050505f90565b611cfe611cc58284611be7565b61ffff808716911614611d1357600101611c24565b5050505050600290565b5050600190565b805160208201516040830151906d7fffffffffffffffffffffffffff19928381161593841594611e00575b8415611df4575b508315611de8575b508215611ddc575b5050611dcd5780611d886060610437930151608083015160a084015191612075565b611da9611d9a60c083015161ffff1690565b60e083015161ffff1690612128565b611dc7610120611dbe61010084015160ff1690565b92015160ff1690565b90612185565b630148b7f360e71b5f5260045ffd5b16151590505f80611d66565b8116151592505f611d5e565b8316151593505f611d56565b82811615159450611d4f565b9091925f5b83811015611e6c578060051b83013590611e2a82610420565b85549168010000000000000000831015610b7e57611e4f836001809501895588611be7565b61ffff80839493549260031b9316831b921b191617905501611e11565b5092505050565b81158015611ed3575b6116c5576001600160a01b03165f8181526020819052604090208054919282810192831061092d577f9c9e0cdb1670e88302408e5b941dc636f63a3293204694bb68910fcf3d9305f39260209255604051908152a2565b506001600160a01b03811615611e7c565b8051159081611fb6575b81611fa9575b81611f9c575b81611f8f575b81611f82575b81611f66575b81611f4a575b81611f2f575b81611f21575090565b610120015160ff1615919050565b905060ff611f4261010083015160ff1690565b161590611f18565b905061ffff611f5e60e083015161ffff1690565b161590611f12565b905061ffff611f7a60c083015161ffff1690565b161590611f0c565b60a0810151159150611f06565b6080810151159150611f00565b6060810151159150611efa565b6040810151159150611ef4565b6020810151159150611eee565b9060018060a01b031690611fe48151602083015160408401519186866121f3565b9283612053575b8361202e575b83611ffd575b50505090565b612026935061202061012061201761010085015160ff1690565b93015160ff1690565b92612415565b5f8080611ff7565b925061204d61ffff60c08301511661ffff60e084015116908585612360565b92611ff1565b925061206f6060820151608083015160a0840151918686612295565b92611feb565b6001600160de1b0319808216158015949392919061211c575b8415612110575b508315612103575b83156120f6575b83156120e9575b83156120dd575b5082156120d1575b50506120c257565b63bb3ab50d60e01b5f5260045ffd5b16151590505f806120ba565b8116151592505f6120b2565b60018316151593506120ab565b60018216151593506120a4565b600181161515935061209d565b8316151593505f612095565b8281161515945061208e565b9061ffff169081156121795761ffff169080821191821561216e575b508115612162575b5061215357565b63690c5bc960e11b5f5260045ffd5b61014c9150115f61214c565b60941191505f612144565b61ffff91501661215357565b9060ff169081156121d35760ff16908082119182156121c8575b5081156121bd575b506121ae57565b63721d11f160e11b5f5260045ffd5b600e9150115f6121a7565b60021191505f61219f565b60ff9150166121ae57565b9081602091031261013c57516110bc81610156565b929093919382828617171561227c576040516371b7765360e01b815261ffff919091166004820152602481019490945260448401526064830152602090829060849082906001600160a01b03165afa908115611907575f91612253575090565b6110bc915060203d602011612275575b61226d8183610b83565b8101906121de565b503d612263565b5050505050600190565b9081602091031261013c575190565b939190929382858317171561227c57604051630e2382e560e01b815261ffff949094166004850152602090849060249082906001600160a01b03165afa928315611907575f9361231a575b5080831614928361230f575b50826122f757505090565b8015925090821561230757505090565b161515905090565b82161592505f6122ec565b61233d91935060203d602011612344575b6123358183610b83565b810190612286565b915f6122e0565b503d61232b565b9081602091031261013c57516110bc81610420565b919261ffff169182156123f757604051634a69ff2160e11b815261ffff929092166004830152602090829060249082906001600160a01b03165afa9081156119075761ffff9182915f916123c8575b5016921682101591826123c157505090565b1115919050565b6123ea915060203d6020116123f0575b6123e28183610b83565b81019061234b565b5f6123af565b503d6123d8565b50505050600190565b9081602091031261013c57516110bc81611151565b919260ff169182156123f75760405163e13d8da160e01b815261ffff929092166004830152602090829060249082906001600160a01b03165afa9081156119075760ff9182915f91612473575016921682101591826123c157505090565b6123ea915060203d602011612495575b61248d8183610b83565b810190612400565b503d61248356fe9b779b17422d0df92223018b32b4d1fa46e071723d6817e2486d003becc55f00a2646970667358221220b36f14517d16b38be140b8306bdb88048c4a1077e139f34227e8fe2caeb2143d64736f6c63430008220033",
  "linkReferences": {},
  "deployedLinkReferences": {},
  "immutableReferences": {
    "290": [
      {
        "length": 32,
        "start": 2762
      },
      {
        "length": 32,
        "start": 5580
      },
      {
        "length": 32,
        "start": 6066
      },
      {
        "length": 32,
        "start": 6760
      }
    ],
    "297": [
      {
        "length": 32,
        "start": 1446
      },
      {
        "length": 32,
        "start": 7265
      }
    ]
  },
  "inputSourceName": "project/contracts/PunksMarket.sol",
  "buildInfoId": "solc-0_8_34-afce39150b686f532aa4f758e8aa5f3209a046b3"
}