{
  "_format": "hh3-artifact-1",
  "contractName": "PunksAuction",
  "sourceName": "contracts/PunksAuction.sol",
  "abi": [
    {
      "inputs": [],
      "stateMutability": "nonpayable",
      "type": "constructor"
    },
    {
      "inputs": [],
      "name": "AuctionAlreadySettled",
      "type": "error"
    },
    {
      "inputs": [],
      "name": "AuctionDoesNotExist",
      "type": "error"
    },
    {
      "inputs": [],
      "name": "AuctionNotActive",
      "type": "error"
    },
    {
      "inputs": [],
      "name": "AuctionNotApproved",
      "type": "error"
    },
    {
      "inputs": [],
      "name": "AuctionNotComplete",
      "type": "error"
    },
    {
      "inputs": [
        {
          "internalType": "address",
          "name": "allowed",
          "type": "address"
        }
      ],
      "name": "BuyerNotAllowed",
      "type": "error"
    },
    {
      "inputs": [],
      "name": "DuplicateLotItem",
      "type": "error"
    },
    {
      "inputs": [],
      "name": "FailedWithdrawal",
      "type": "error"
    },
    {
      "inputs": [],
      "name": "IncorrectPayment",
      "type": "error"
    },
    {
      "inputs": [],
      "name": "InvalidAmount",
      "type": "error"
    },
    {
      "inputs": [],
      "name": "InvalidColorCountRange",
      "type": "error"
    },
    {
      "inputs": [],
      "name": "InvalidColorMask",
      "type": "error"
    },
    {
      "inputs": [],
      "name": "InvalidItemCount",
      "type": "error"
    },
    {
      "inputs": [],
      "name": "InvalidPixelCountRange",
      "type": "error"
    },
    {
      "inputs": [],
      "name": "InvalidSlotCount",
      "type": "error"
    },
    {
      "inputs": [],
      "name": "InvalidTraitMask",
      "type": "error"
    },
    {
      "inputs": [],
      "name": "InvalidWeights",
      "type": "error"
    },
    {
      "inputs": [],
      "name": "ListingNotValid",
      "type": "error"
    },
    {
      "inputs": [
        {
          "internalType": "uint96",
          "name": "expectedListingWei",
          "type": "uint96"
        },
        {
          "internalType": "uint256",
          "name": "actualListingWei",
          "type": "uint256"
        }
      ],
      "name": "ListingPriceMismatch",
      "type": "error"
    },
    {
      "inputs": [],
      "name": "ListingPriceTooHigh",
      "type": "error"
    },
    {
      "inputs": [],
      "name": "LotNotFound",
      "type": "error"
    },
    {
      "inputs": [],
      "name": "LotNotStale",
      "type": "error"
    },
    {
      "inputs": [],
      "name": "LotTooLargeForInstantAccept",
      "type": "error"
    },
    {
      "inputs": [
        {
          "internalType": "uint96",
          "name": "minBidWei",
          "type": "uint96"
        },
        {
          "internalType": "uint96",
          "name": "actualBidWei",
          "type": "uint96"
        }
      ],
      "name": "MinimumBidNotMet",
      "type": "error"
    },
    {
      "inputs": [],
      "name": "MultiSlotOfferRequiresLot",
      "type": "error"
    },
    {
      "inputs": [],
      "name": "NoBalanceToWithdraw",
      "type": "error"
    },
    {
      "inputs": [],
      "name": "NotAuctions",
      "type": "error"
    },
    {
      "inputs": [],
      "name": "NotOfferer",
      "type": "error"
    },
    {
      "inputs": [],
      "name": "NotSeller",
      "type": "error"
    },
    {
      "inputs": [
        {
          "internalType": "uint96",
          "name": "minAmountWei",
          "type": "uint96"
        },
        {
          "internalType": "uint96",
          "name": "actualAmountWei",
          "type": "uint96"
        }
      ],
      "name": "OfferAmountBelowMinimum",
      "type": "error"
    },
    {
      "inputs": [],
      "name": "OfferNotActive",
      "type": "error"
    },
    {
      "inputs": [],
      "name": "OfferStandardMismatch",
      "type": "error"
    },
    {
      "inputs": [
        {
          "internalType": "uint256",
          "name": "lotId",
          "type": "uint256"
        }
      ],
      "name": "PunkAlreadyInLot",
      "type": "error"
    },
    {
      "inputs": [],
      "name": "PunkExcluded",
      "type": "error"
    },
    {
      "inputs": [],
      "name": "PunkNotInVault",
      "type": "error"
    },
    {
      "inputs": [],
      "name": "PunkNotMatched",
      "type": "error"
    },
    {
      "inputs": [],
      "name": "ReentrancyGuardReentrantCall",
      "type": "error"
    },
    {
      "inputs": [
        {
          "internalType": "uint96",
          "name": "expectedReserveWei",
          "type": "uint96"
        },
        {
          "internalType": "uint96",
          "name": "actualReserveWei",
          "type": "uint96"
        }
      ],
      "name": "ReserveMismatch",
      "type": "error"
    },
    {
      "inputs": [
        {
          "internalType": "uint96",
          "name": "reserveWei",
          "type": "uint96"
        },
        {
          "internalType": "uint96",
          "name": "actualWei",
          "type": "uint96"
        }
      ],
      "name": "ReserveNotMet",
      "type": "error"
    },
    {
      "inputs": [],
      "name": "SlotItemCountMismatch",
      "type": "error"
    },
    {
      "inputs": [],
      "name": "TooManyIds",
      "type": "error"
    },
    {
      "inputs": [],
      "name": "UnexpectedEtherSender",
      "type": "error"
    },
    {
      "inputs": [],
      "name": "VaultNotDeployed",
      "type": "error"
    },
    {
      "inputs": [],
      "name": "ZeroAddress",
      "type": "error"
    },
    {
      "anonymous": false,
      "inputs": [
        {
          "indexed": true,
          "internalType": "uint256",
          "name": "auctionId",
          "type": "uint256"
        },
        {
          "indexed": false,
          "internalType": "uint40",
          "name": "endTimestamp",
          "type": "uint40"
        }
      ],
      "name": "AuctionExtended",
      "type": "event"
    },
    {
      "anonymous": false,
      "inputs": [
        {
          "indexed": true,
          "internalType": "uint256",
          "name": "auctionId",
          "type": "uint256"
        },
        {
          "indexed": true,
          "internalType": "uint256",
          "name": "lotId",
          "type": "uint256"
        },
        {
          "indexed": true,
          "internalType": "address",
          "name": "seller",
          "type": "address"
        },
        {
          "indexed": false,
          "internalType": "uint8",
          "name": "itemCount",
          "type": "uint8"
        },
        {
          "indexed": false,
          "internalType": "uint40",
          "name": "endTimestamp",
          "type": "uint40"
        }
      ],
      "name": "AuctionInitialised",
      "type": "event"
    },
    {
      "anonymous": false,
      "inputs": [
        {
          "indexed": true,
          "internalType": "uint256",
          "name": "auctionId",
          "type": "uint256"
        },
        {
          "indexed": true,
          "internalType": "uint8",
          "name": "itemIndex",
          "type": "uint8"
        },
        {
          "indexed": false,
          "internalType": "enum IPunksAuction.TokenStandard",
          "name": "standard",
          "type": "uint8"
        },
        {
          "indexed": false,
          "internalType": "uint16",
          "name": "punkId",
          "type": "uint16"
        },
        {
          "indexed": false,
          "internalType": "address",
          "name": "recipient",
          "type": "address"
        },
        {
          "indexed": false,
          "internalType": "uint96",
          "name": "itemWei",
          "type": "uint96"
        }
      ],
      "name": "AuctionItemDelivered",
      "type": "event"
    },
    {
      "anonymous": false,
      "inputs": [
        {
          "indexed": true,
          "internalType": "uint256",
          "name": "auctionId",
          "type": "uint256"
        },
        {
          "indexed": true,
          "internalType": "address",
          "name": "winner",
          "type": "address"
        },
        {
          "indexed": true,
          "internalType": "address",
          "name": "seller",
          "type": "address"
        },
        {
          "indexed": false,
          "internalType": "uint256",
          "name": "finalWei",
          "type": "uint256"
        }
      ],
      "name": "AuctionSettled",
      "type": "event"
    },
    {
      "anonymous": false,
      "inputs": [
        {
          "indexed": true,
          "internalType": "uint256",
          "name": "auctionId",
          "type": "uint256"
        },
        {
          "indexed": true,
          "internalType": "address",
          "name": "bidder",
          "type": "address"
        },
        {
          "indexed": false,
          "internalType": "uint256",
          "name": "amountWei",
          "type": "uint256"
        }
      ],
      "name": "Bid",
      "type": "event"
    },
    {
      "anonymous": false,
      "inputs": [
        {
          "indexed": true,
          "internalType": "address",
          "name": "account",
          "type": "address"
        },
        {
          "indexed": false,
          "internalType": "uint256",
          "name": "amount",
          "type": "uint256"
        }
      ],
      "name": "Credited",
      "type": "event"
    },
    {
      "anonymous": false,
      "inputs": [
        {
          "indexed": true,
          "internalType": "uint256",
          "name": "lotId",
          "type": "uint256"
        }
      ],
      "name": "LotCancelled",
      "type": "event"
    },
    {
      "anonymous": false,
      "inputs": [
        {
          "indexed": true,
          "internalType": "uint256",
          "name": "lotId",
          "type": "uint256"
        },
        {
          "indexed": true,
          "internalType": "address",
          "name": "cleaner",
          "type": "address"
        }
      ],
      "name": "LotCleared",
      "type": "event"
    },
    {
      "anonymous": false,
      "inputs": [
        {
          "indexed": true,
          "internalType": "uint256",
          "name": "lotId",
          "type": "uint256"
        },
        {
          "indexed": true,
          "internalType": "address",
          "name": "seller",
          "type": "address"
        },
        {
          "indexed": true,
          "internalType": "bytes32",
          "name": "itemHash",
          "type": "bytes32"
        },
        {
          "indexed": false,
          "internalType": "uint8",
          "name": "itemCount",
          "type": "uint8"
        },
        {
          "indexed": false,
          "internalType": "uint96",
          "name": "reserveWei",
          "type": "uint96"
        },
        {
          "indexed": false,
          "internalType": "address",
          "name": "onlySellTo",
          "type": "address"
        }
      ],
      "name": "LotCreated",
      "type": "event"
    },
    {
      "anonymous": false,
      "inputs": [
        {
          "indexed": true,
          "internalType": "uint256",
          "name": "lotId",
          "type": "uint256"
        },
        {
          "indexed": true,
          "internalType": "uint8",
          "name": "itemIndex",
          "type": "uint8"
        },
        {
          "indexed": false,
          "internalType": "enum IPunksAuction.TokenStandard",
          "name": "standard",
          "type": "uint8"
        },
        {
          "indexed": false,
          "internalType": "uint16",
          "name": "punkId",
          "type": "uint16"
        },
        {
          "indexed": false,
          "internalType": "uint16",
          "name": "weightBps",
          "type": "uint16"
        }
      ],
      "name": "LotItemDetail",
      "type": "event"
    },
    {
      "anonymous": false,
      "inputs": [
        {
          "indexed": true,
          "internalType": "uint256",
          "name": "lotId",
          "type": "uint256"
        },
        {
          "indexed": false,
          "internalType": "uint96",
          "name": "reserveWei",
          "type": "uint96"
        },
        {
          "indexed": false,
          "internalType": "address",
          "name": "onlySellTo",
          "type": "address"
        }
      ],
      "name": "LotUpdated",
      "type": "event"
    },
    {
      "anonymous": false,
      "inputs": [
        {
          "indexed": true,
          "internalType": "uint256",
          "name": "offerId",
          "type": "uint256"
        },
        {
          "indexed": true,
          "internalType": "uint256",
          "name": "punkId",
          "type": "uint256"
        },
        {
          "indexed": true,
          "internalType": "address",
          "name": "seller",
          "type": "address"
        },
        {
          "indexed": false,
          "internalType": "address",
          "name": "offerer",
          "type": "address"
        },
        {
          "indexed": false,
          "internalType": "uint256",
          "name": "amountWei",
          "type": "uint256"
        }
      ],
      "name": "OfferAccepted",
      "type": "event"
    },
    {
      "anonymous": false,
      "inputs": [
        {
          "indexed": true,
          "internalType": "uint256",
          "name": "offerId",
          "type": "uint256"
        },
        {
          "indexed": true,
          "internalType": "uint256",
          "name": "lotId",
          "type": "uint256"
        },
        {
          "indexed": true,
          "internalType": "address",
          "name": "seller",
          "type": "address"
        },
        {
          "indexed": false,
          "internalType": "address",
          "name": "offerer",
          "type": "address"
        },
        {
          "indexed": false,
          "internalType": "uint96",
          "name": "amountWei",
          "type": "uint96"
        }
      ],
      "name": "OfferAcceptedFromLot",
      "type": "event"
    },
    {
      "anonymous": false,
      "inputs": [
        {
          "indexed": true,
          "internalType": "uint256",
          "name": "offerId",
          "type": "uint256"
        },
        {
          "indexed": false,
          "internalType": "uint96",
          "name": "newAmountWei",
          "type": "uint96"
        }
      ],
      "name": "OfferAmountAdjusted",
      "type": "event"
    },
    {
      "anonymous": false,
      "inputs": [
        {
          "indexed": true,
          "internalType": "uint256",
          "name": "offerId",
          "type": "uint256"
        },
        {
          "indexed": true,
          "internalType": "uint256",
          "name": "auctionId",
          "type": "uint256"
        },
        {
          "indexed": true,
          "internalType": "uint256",
          "name": "lotId",
          "type": "uint256"
        },
        {
          "indexed": false,
          "internalType": "address",
          "name": "seller",
          "type": "address"
        },
        {
          "indexed": false,
          "internalType": "address",
          "name": "offerer",
          "type": "address"
        },
        {
          "indexed": false,
          "internalType": "uint96",
          "name": "amountWei",
          "type": "uint96"
        }
      ],
      "name": "OfferAuctionInitialised",
      "type": "event"
    },
    {
      "anonymous": false,
      "inputs": [
        {
          "indexed": true,
          "internalType": "uint256",
          "name": "offerId",
          "type": "uint256"
        }
      ],
      "name": "OfferCancelled",
      "type": "event"
    },
    {
      "anonymous": false,
      "inputs": [
        {
          "indexed": true,
          "internalType": "uint256",
          "name": "offerId",
          "type": "uint256"
        },
        {
          "indexed": true,
          "internalType": "address",
          "name": "offerer",
          "type": "address"
        },
        {
          "indexed": false,
          "internalType": "uint96",
          "name": "amountWei",
          "type": "uint96"
        },
        {
          "indexed": false,
          "internalType": "uint8",
          "name": "slotCount",
          "type": "uint8"
        }
      ],
      "name": "OfferPlaced",
      "type": "event"
    },
    {
      "anonymous": false,
      "inputs": [
        {
          "indexed": true,
          "internalType": "uint256",
          "name": "offerId",
          "type": "uint256"
        },
        {
          "indexed": true,
          "internalType": "uint8",
          "name": "slotIndex",
          "type": "uint8"
        },
        {
          "indexed": false,
          "internalType": "enum IPunksAuction.TokenStandard",
          "name": "standard",
          "type": "uint8"
        },
        {
          "components": [
            {
              "internalType": "uint256",
              "name": "requiredTraitMask",
              "type": "uint256"
            },
            {
              "internalType": "uint256",
              "name": "forbiddenTraitMask",
              "type": "uint256"
            },
            {
              "internalType": "uint256",
              "name": "anyOfTraitMask",
              "type": "uint256"
            },
            {
              "internalType": "uint256",
              "name": "requiredColorMask",
              "type": "uint256"
            },
            {
              "internalType": "uint256",
              "name": "forbiddenColorMask",
              "type": "uint256"
            },
            {
              "internalType": "uint256",
              "name": "anyOfColorMask",
              "type": "uint256"
            },
            {
              "internalType": "uint16",
              "name": "minPixelCount",
              "type": "uint16"
            },
            {
              "internalType": "uint16",
              "name": "maxPixelCount",
              "type": "uint16"
            },
            {
              "internalType": "uint8",
              "name": "minColorCount",
              "type": "uint8"
            },
            {
              "internalType": "uint8",
              "name": "maxColorCount",
              "type": "uint8"
            }
          ],
          "indexed": false,
          "internalType": "struct Punks.Filter",
          "name": "criteria",
          "type": "tuple"
        },
        {
          "indexed": false,
          "internalType": "uint16[]",
          "name": "includeIds",
          "type": "uint16[]"
        },
        {
          "indexed": false,
          "internalType": "uint16[]",
          "name": "excludeIds",
          "type": "uint16[]"
        }
      ],
      "name": "OfferSlotDetail",
      "type": "event"
    },
    {
      "anonymous": false,
      "inputs": [
        {
          "indexed": true,
          "internalType": "address",
          "name": "account",
          "type": "address"
        },
        {
          "indexed": false,
          "internalType": "uint256",
          "name": "amount",
          "type": "uint256"
        }
      ],
      "name": "Withdrawal",
      "type": "event"
    },
    {
      "inputs": [],
      "name": "ESCROW",
      "outputs": [
        {
          "internalType": "contract PunksAuctionEscrow",
          "name": "",
          "type": "address"
        }
      ],
      "stateMutability": "view",
      "type": "function"
    },
    {
      "inputs": [],
      "name": "PUNKS",
      "outputs": [
        {
          "internalType": "contract ICryptoPunksMarket",
          "name": "",
          "type": "address"
        }
      ],
      "stateMutability": "view",
      "type": "function"
    },
    {
      "inputs": [],
      "name": "PUNKS_DATA",
      "outputs": [
        {
          "internalType": "contract IPunksDataMatcher",
          "name": "",
          "type": "address"
        }
      ],
      "stateMutability": "view",
      "type": "function"
    },
    {
      "inputs": [],
      "name": "PUNKS_V1",
      "outputs": [
        {
          "internalType": "contract ICryptoPunksMarket",
          "name": "",
          "type": "address"
        }
      ],
      "stateMutability": "view",
      "type": "function"
    },
    {
      "inputs": [],
      "name": "VAULTS",
      "outputs": [
        {
          "internalType": "contract IPunksVaultFactory",
          "name": "",
          "type": "address"
        }
      ],
      "stateMutability": "view",
      "type": "function"
    },
    {
      "inputs": [
        {
          "internalType": "uint256",
          "name": "offerId",
          "type": "uint256"
        },
        {
          "internalType": "uint16",
          "name": "punkId",
          "type": "uint16"
        },
        {
          "internalType": "uint96",
          "name": "expectedListingWei",
          "type": "uint96"
        }
      ],
      "name": "acceptOffer",
      "outputs": [],
      "stateMutability": "nonpayable",
      "type": "function"
    },
    {
      "inputs": [
        {
          "internalType": "uint256",
          "name": "offerId",
          "type": "uint256"
        },
        {
          "internalType": "uint256",
          "name": "lotId",
          "type": "uint256"
        },
        {
          "internalType": "uint96",
          "name": "minAmountWei",
          "type": "uint96"
        }
      ],
      "name": "acceptOfferFromLot",
      "outputs": [],
      "stateMutability": "nonpayable",
      "type": "function"
    },
    {
      "inputs": [
        {
          "internalType": "address",
          "name": "seller",
          "type": "address"
        },
        {
          "internalType": "enum IPunksAuction.TokenStandard",
          "name": "standard",
          "type": "uint8"
        },
        {
          "internalType": "uint16",
          "name": "punkId",
          "type": "uint16"
        }
      ],
      "name": "activeLotFor",
      "outputs": [
        {
          "internalType": "uint256",
          "name": "",
          "type": "uint256"
        }
      ],
      "stateMutability": "view",
      "type": "function"
    },
    {
      "inputs": [
        {
          "internalType": "uint256",
          "name": "offerId",
          "type": "uint256"
        },
        {
          "internalType": "uint96",
          "name": "newAmountWei",
          "type": "uint96"
        }
      ],
      "name": "adjustOfferAmount",
      "outputs": [],
      "stateMutability": "payable",
      "type": "function"
    },
    {
      "inputs": [
        {
          "internalType": "uint256",
          "name": "auctionId",
          "type": "uint256"
        }
      ],
      "name": "auctionActive",
      "outputs": [
        {
          "internalType": "bool",
          "name": "",
          "type": "bool"
        }
      ],
      "stateMutability": "view",
      "type": "function"
    },
    {
      "inputs": [
        {
          "internalType": "uint256",
          "name": "",
          "type": "uint256"
        }
      ],
      "name": "auctions",
      "outputs": [
        {
          "internalType": "address",
          "name": "seller",
          "type": "address"
        },
        {
          "internalType": "address",
          "name": "latestBidder",
          "type": "address"
        },
        {
          "internalType": "uint96",
          "name": "latestBidWei",
          "type": "uint96"
        },
        {
          "internalType": "uint40",
          "name": "endTimestamp",
          "type": "uint40"
        },
        {
          "internalType": "bool",
          "name": "settled",
          "type": "bool"
        }
      ],
      "stateMutability": "view",
      "type": "function"
    },
    {
      "inputs": [
        {
          "internalType": "address",
          "name": "",
          "type": "address"
        }
      ],
      "name": "balances",
      "outputs": [
        {
          "internalType": "uint256",
          "name": "",
          "type": "uint256"
        }
      ],
      "stateMutability": "view",
      "type": "function"
    },
    {
      "inputs": [
        {
          "internalType": "uint256",
          "name": "auctionId",
          "type": "uint256"
        }
      ],
      "name": "bid",
      "outputs": [],
      "stateMutability": "payable",
      "type": "function"
    },
    {
      "inputs": [
        {
          "internalType": "uint256",
          "name": "id",
          "type": "uint256"
        }
      ],
      "name": "cancelLot",
      "outputs": [],
      "stateMutability": "nonpayable",
      "type": "function"
    },
    {
      "inputs": [
        {
          "internalType": "uint256",
          "name": "offerId",
          "type": "uint256"
        }
      ],
      "name": "cancelOffer",
      "outputs": [],
      "stateMutability": "nonpayable",
      "type": "function"
    },
    {
      "inputs": [
        {
          "internalType": "uint256",
          "name": "id",
          "type": "uint256"
        }
      ],
      "name": "clearStaleLot",
      "outputs": [],
      "stateMutability": "nonpayable",
      "type": "function"
    },
    {
      "inputs": [
        {
          "internalType": "uint256[]",
          "name": "ids",
          "type": "uint256[]"
        }
      ],
      "name": "clearStaleLots",
      "outputs": [],
      "stateMutability": "nonpayable",
      "type": "function"
    },
    {
      "inputs": [
        {
          "components": [
            {
              "internalType": "enum IPunksAuction.TokenStandard",
              "name": "standard",
              "type": "uint8"
            },
            {
              "internalType": "uint16",
              "name": "punkId",
              "type": "uint16"
            },
            {
              "internalType": "uint16",
              "name": "weightBps",
              "type": "uint16"
            }
          ],
          "internalType": "struct IPunksAuction.LotItem[]",
          "name": "items",
          "type": "tuple[]"
        },
        {
          "internalType": "uint96",
          "name": "reserveWei",
          "type": "uint96"
        },
        {
          "internalType": "address",
          "name": "onlySellTo",
          "type": "address"
        }
      ],
      "name": "createLot",
      "outputs": [
        {
          "internalType": "uint256",
          "name": "id",
          "type": "uint256"
        }
      ],
      "stateMutability": "nonpayable",
      "type": "function"
    },
    {
      "inputs": [
        {
          "components": [
            {
              "internalType": "enum IPunksAuction.TokenStandard",
              "name": "standard",
              "type": "uint8"
            },
            {
              "internalType": "uint16",
              "name": "punkId",
              "type": "uint16"
            },
            {
              "internalType": "uint16",
              "name": "weightBps",
              "type": "uint16"
            }
          ],
          "internalType": "struct IPunksAuction.LotItem[]",
          "name": "items",
          "type": "tuple[]"
        },
        {
          "internalType": "uint256",
          "name": "offerId",
          "type": "uint256"
        },
        {
          "internalType": "uint96",
          "name": "minAmountWei",
          "type": "uint96"
        }
      ],
      "name": "createLotAndAcceptOffer",
      "outputs": [
        {
          "internalType": "uint256",
          "name": "lotId",
          "type": "uint256"
        }
      ],
      "stateMutability": "nonpayable",
      "type": "function"
    },
    {
      "inputs": [
        {
          "components": [
            {
              "internalType": "enum IPunksAuction.TokenStandard",
              "name": "standard",
              "type": "uint8"
            },
            {
              "internalType": "uint16",
              "name": "punkId",
              "type": "uint16"
            },
            {
              "internalType": "uint16",
              "name": "weightBps",
              "type": "uint16"
            }
          ],
          "internalType": "struct IPunksAuction.LotItem[]",
          "name": "items",
          "type": "tuple[]"
        },
        {
          "internalType": "uint256",
          "name": "offerId",
          "type": "uint256"
        },
        {
          "internalType": "uint96",
          "name": "minAmountWei",
          "type": "uint96"
        }
      ],
      "name": "createLotAndStartAuction",
      "outputs": [
        {
          "internalType": "uint256",
          "name": "auctionId",
          "type": "uint256"
        }
      ],
      "stateMutability": "nonpayable",
      "type": "function"
    },
    {
      "inputs": [
        {
          "internalType": "uint256",
          "name": "auctionId",
          "type": "uint256"
        }
      ],
      "name": "currentMinBidWei",
      "outputs": [
        {
          "internalType": "uint96",
          "name": "",
          "type": "uint96"
        }
      ],
      "stateMutability": "view",
      "type": "function"
    },
    {
      "inputs": [
        {
          "internalType": "uint256",
          "name": "auctionId",
          "type": "uint256"
        }
      ],
      "name": "endTimestampOf",
      "outputs": [
        {
          "internalType": "uint40",
          "name": "",
          "type": "uint40"
        }
      ],
      "stateMutability": "view",
      "type": "function"
    },
    {
      "inputs": [
        {
          "internalType": "uint256",
          "name": "auctionId",
          "type": "uint256"
        }
      ],
      "name": "getAuctionItems",
      "outputs": [
        {
          "components": [
            {
              "internalType": "enum IPunksAuction.TokenStandard",
              "name": "standard",
              "type": "uint8"
            },
            {
              "internalType": "uint16",
              "name": "punkId",
              "type": "uint16"
            },
            {
              "internalType": "uint16",
              "name": "weightBps",
              "type": "uint16"
            }
          ],
          "internalType": "struct IPunksAuction.LotItem[]",
          "name": "",
          "type": "tuple[]"
        }
      ],
      "stateMutability": "view",
      "type": "function"
    },
    {
      "inputs": [
        {
          "internalType": "uint256",
          "name": "lotId",
          "type": "uint256"
        }
      ],
      "name": "getLotItems",
      "outputs": [
        {
          "components": [
            {
              "internalType": "enum IPunksAuction.TokenStandard",
              "name": "standard",
              "type": "uint8"
            },
            {
              "internalType": "uint16",
              "name": "punkId",
              "type": "uint16"
            },
            {
              "internalType": "uint16",
              "name": "weightBps",
              "type": "uint16"
            }
          ],
          "internalType": "struct IPunksAuction.LotItem[]",
          "name": "",
          "type": "tuple[]"
        }
      ],
      "stateMutability": "view",
      "type": "function"
    },
    {
      "inputs": [
        {
          "internalType": "uint256",
          "name": "offerId",
          "type": "uint256"
        }
      ],
      "name": "getOfferSlots",
      "outputs": [
        {
          "components": [
            {
              "components": [
                {
                  "internalType": "uint256",
                  "name": "requiredTraitMask",
                  "type": "uint256"
                },
                {
                  "internalType": "uint256",
                  "name": "forbiddenTraitMask",
                  "type": "uint256"
                },
                {
                  "internalType": "uint256",
                  "name": "anyOfTraitMask",
                  "type": "uint256"
                },
                {
                  "internalType": "uint256",
                  "name": "requiredColorMask",
                  "type": "uint256"
                },
                {
                  "internalType": "uint256",
                  "name": "forbiddenColorMask",
                  "type": "uint256"
                },
                {
                  "internalType": "uint256",
                  "name": "anyOfColorMask",
                  "type": "uint256"
                },
                {
                  "internalType": "uint16",
                  "name": "minPixelCount",
                  "type": "uint16"
                },
                {
                  "internalType": "uint16",
                  "name": "maxPixelCount",
                  "type": "uint16"
                },
                {
                  "internalType": "uint8",
                  "name": "minColorCount",
                  "type": "uint8"
                },
                {
                  "internalType": "uint8",
                  "name": "maxColorCount",
                  "type": "uint8"
                }
              ],
              "internalType": "struct Punks.Filter",
              "name": "criteria",
              "type": "tuple"
            },
            {
              "internalType": "enum IPunksAuction.TokenStandard",
              "name": "standard",
              "type": "uint8"
            },
            {
              "internalType": "uint16[]",
              "name": "includeIds",
              "type": "uint16[]"
            },
            {
              "internalType": "uint16[]",
              "name": "excludeIds",
              "type": "uint16[]"
            }
          ],
          "internalType": "struct IPunksAuction.OfferSlot[]",
          "name": "",
          "type": "tuple[]"
        }
      ],
      "stateMutability": "view",
      "type": "function"
    },
    {
      "inputs": [],
      "name": "lastAuctionId",
      "outputs": [
        {
          "internalType": "uint256",
          "name": "",
          "type": "uint256"
        }
      ],
      "stateMutability": "view",
      "type": "function"
    },
    {
      "inputs": [],
      "name": "lastLotId",
      "outputs": [
        {
          "internalType": "uint256",
          "name": "",
          "type": "uint256"
        }
      ],
      "stateMutability": "view",
      "type": "function"
    },
    {
      "inputs": [],
      "name": "lastOfferId",
      "outputs": [
        {
          "internalType": "uint256",
          "name": "",
          "type": "uint256"
        }
      ],
      "stateMutability": "view",
      "type": "function"
    },
    {
      "inputs": [
        {
          "internalType": "bytes32",
          "name": "",
          "type": "bytes32"
        }
      ],
      "name": "lotForPunk",
      "outputs": [
        {
          "internalType": "uint256",
          "name": "",
          "type": "uint256"
        }
      ],
      "stateMutability": "view",
      "type": "function"
    },
    {
      "inputs": [
        {
          "internalType": "uint256",
          "name": "",
          "type": "uint256"
        }
      ],
      "name": "lots",
      "outputs": [
        {
          "internalType": "address",
          "name": "seller",
          "type": "address"
        },
        {
          "internalType": "uint96",
          "name": "reserveWei",
          "type": "uint96"
        },
        {
          "internalType": "address",
          "name": "onlySellTo",
          "type": "address"
        }
      ],
      "stateMutability": "view",
      "type": "function"
    },
    {
      "inputs": [
        {
          "internalType": "uint256",
          "name": "",
          "type": "uint256"
        }
      ],
      "name": "offers",
      "outputs": [
        {
          "internalType": "uint96",
          "name": "amountWei",
          "type": "uint96"
        },
        {
          "internalType": "address",
          "name": "offerer",
          "type": "address"
        }
      ],
      "stateMutability": "view",
      "type": "function"
    },
    {
      "inputs": [
        {
          "internalType": "uint256",
          "name": "lotId",
          "type": "uint256"
        },
        {
          "internalType": "uint96",
          "name": "expectedReserveWei",
          "type": "uint96"
        }
      ],
      "name": "openAuction",
      "outputs": [
        {
          "internalType": "uint256",
          "name": "auctionId",
          "type": "uint256"
        }
      ],
      "stateMutability": "payable",
      "type": "function"
    },
    {
      "inputs": [
        {
          "internalType": "uint96",
          "name": "amountWei",
          "type": "uint96"
        },
        {
          "components": [
            {
              "components": [
                {
                  "internalType": "uint256",
                  "name": "requiredTraitMask",
                  "type": "uint256"
                },
                {
                  "internalType": "uint256",
                  "name": "forbiddenTraitMask",
                  "type": "uint256"
                },
                {
                  "internalType": "uint256",
                  "name": "anyOfTraitMask",
                  "type": "uint256"
                },
                {
                  "internalType": "uint256",
                  "name": "requiredColorMask",
                  "type": "uint256"
                },
                {
                  "internalType": "uint256",
                  "name": "forbiddenColorMask",
                  "type": "uint256"
                },
                {
                  "internalType": "uint256",
                  "name": "anyOfColorMask",
                  "type": "uint256"
                },
                {
                  "internalType": "uint16",
                  "name": "minPixelCount",
                  "type": "uint16"
                },
                {
                  "internalType": "uint16",
                  "name": "maxPixelCount",
                  "type": "uint16"
                },
                {
                  "internalType": "uint8",
                  "name": "minColorCount",
                  "type": "uint8"
                },
                {
                  "internalType": "uint8",
                  "name": "maxColorCount",
                  "type": "uint8"
                }
              ],
              "internalType": "struct Punks.Filter",
              "name": "criteria",
              "type": "tuple"
            },
            {
              "internalType": "enum IPunksAuction.TokenStandard",
              "name": "standard",
              "type": "uint8"
            },
            {
              "internalType": "uint16[]",
              "name": "includeIds",
              "type": "uint16[]"
            },
            {
              "internalType": "uint16[]",
              "name": "excludeIds",
              "type": "uint16[]"
            }
          ],
          "internalType": "struct IPunksAuction.OfferSlot[]",
          "name": "slots",
          "type": "tuple[]"
        }
      ],
      "name": "placeOffer",
      "outputs": [
        {
          "internalType": "uint256",
          "name": "offerId",
          "type": "uint256"
        }
      ],
      "stateMutability": "payable",
      "type": "function"
    },
    {
      "inputs": [
        {
          "internalType": "uint256",
          "name": "auctionId",
          "type": "uint256"
        }
      ],
      "name": "settle",
      "outputs": [],
      "stateMutability": "nonpayable",
      "type": "function"
    },
    {
      "inputs": [
        {
          "internalType": "uint256",
          "name": "offerId",
          "type": "uint256"
        },
        {
          "internalType": "uint256",
          "name": "lotId",
          "type": "uint256"
        },
        {
          "internalType": "uint96",
          "name": "minAmountWei",
          "type": "uint96"
        }
      ],
      "name": "startAuctionFromOffer",
      "outputs": [
        {
          "internalType": "uint256",
          "name": "auctionId",
          "type": "uint256"
        }
      ],
      "stateMutability": "nonpayable",
      "type": "function"
    },
    {
      "inputs": [
        {
          "internalType": "uint256",
          "name": "id",
          "type": "uint256"
        },
        {
          "internalType": "uint96",
          "name": "reserveWei",
          "type": "uint96"
        },
        {
          "internalType": "address",
          "name": "onlySellTo",
          "type": "address"
        }
      ],
      "name": "updateLot",
      "outputs": [],
      "stateMutability": "nonpayable",
      "type": "function"
    },
    {
      "inputs": [],
      "name": "withdraw",
      "outputs": [],
      "stateMutability": "nonpayable",
      "type": "function"
    },
    {
      "stateMutability": "payable",
      "type": "receive"
    }
  ],
  "bytecode": "0x61012080604052346101f95760017f9b779b17422d0df92223018b32b4d1fa46e071723d6817e2486d003becc55f0055739cf9c8ea737a7d5157d3f4282ace30880a7a117c60805273b47e3cd837ddf8e4c57f05d70ab865de6e193bbb60a052736ba6f2207e343923ba692e5cae646fb0f566db8d60c05273f3381b259b2fe142c0a87bfff463695d935d6f6660e0526105698181016001600160401b038111838210176101fd578291615024833903905ff08015610219576101005260405163c47f002760e01b8152602060048201819052601060248301526f0e0eadcd6e6c2eac6e8d2dedc5ccae8d60831b6044830152816064815f73a58e81fe9b61b5c3fe2afd33cf304c454abfc7cb5af18015610219576101bc575b604051614dff908161022582396080518181816119500152613e6d015260a051818181601b01528181610b8d0152818161235c01526142ca015260c051818181609d015281816109f401528181610d0201526142ee015260e05181818161036d01528181610f7b0152818161389a015281816143630152818161487801526149ca015261010051818181606a01528181610f37015281816131ab015261433d0152f35b6020903d602011610211575b601f8201601f19168101916001600160401b038311828410176101fd57602092604052810103126101f9575f610119565b5f80fd5b634e487b7160e01b5f52604160045260245ffd5b3d91506101c8565b6040513d5f823e3d90fdfe608060405260043610156100cc575b3615610018575f80fd5b337f00000000000000000000000000000000000000000000000000000000000000006001600160a01b0316141580610099575b80610066575b61005757005b6338695c1960e21b5f5260045ffd5b50337f00000000000000000000000000000000000000000000000000000000000000006001600160a01b03161415610051565b50337f00000000000000000000000000000000000000000000000000000000000000006001600160a01b0316141561004b565b5f5f3560e01c80630759041714612654578063095624f8146126135780630a180f27146124ff578063153756bd146123c357806327e235e31461238b57806330da111a146123475780633ccfd60b1461229b578063454a2ab3146120715780634859a3bf14611fce5780634e310cd41461197f5780634ed9a0451461193b578063571a26a0146118cf5780635b43c1be146118a5578063643268c914611888578063644910c81461183c5780636a52bd4514611820578063872fd05e146117ec5780638a72ea6a146117a15780638df82800146114f557806390faeb3e1461148c5780639fe35fda146113c0578063ac3b8f6d146111b4578063b678571014611197578063bb56e30b14611100578063be3b7d0b146110df578063c103e6ee14610faa578063d2dabb5b14610f66578063e681c4aa14610f22578063e759fe9814610ef0578063ef706adf14610e6d578063f0845a6914610a23578063f0a2c245146109de578063f1648e841461098f578063f28856ff14610934578063fd5c7df9146102fe578063fda78b0d146102de5763ffe0b4091461026e575061000e565b346102db5761027c36612872565b9361028993929193612fea565b602882116102cc5750926102ac6102b3926020956102a68661383c565b9161386d565b80936136c8565b60015f516020614daa5f395f51905f5255604051908152f35b63716b26cb60e01b8152600490fd5b80fd5b50346102db5760203660031901126102db576102fb60043561408c565b80f35b50346102db5760603660031901126102db576004356001600160401b0381116109305761032f903690600401612842565b906103386127c3565b906001600160601b036103496127ad565b9216928315610921576040516327a4e1ab60e01b81523360048201526020816024817f00000000000000000000000000000000000000000000000000000000000000006001600160a01b03165afa9081156108cd5786916108e7575b50803b156108d8576040516336b87bd760e11b815230600482015290602090829060249082906001600160a01b03165afa9081156108cd57869161088f575b50156108805780158015610876575b6108675784805b8282106108295761271091500361081a57845b8181106107615750845b8181106106da575060ff811692600186540194858755604051610439816128b8565b33815260208082018381526001600160a01b0394851660408085018281528b8d526001808652828e20965194519489166001600160a01b031960a09690961b861617875590519501805490931694909616939093179055835180820191825293840185905290928581606081018b5b88811061068057506104c3925003601f19810183528261290a565b519020916040519186835260208301526040820152857fb8ff0a3912062080529838acbd1749971542ee69635ec0dec6c28e7784a13d9360603393a483855260036020526040852091855b84811061052057602086604051908152f35b61052b81848461385d565b8454600160401b81101561066c578060016105499201875586613428565b919091610658579081899392359160028310156106545761ffff61060a61060482946001988e61057989886130d4565b6105cd604060208501946105a761058f876130b7565b8b5462ffff00191660089190911b62ffff0016178b55565b01976105b2896130b7565b64ffff00000082549160181b169064ffff0000001916179055565b6105f28b8060a01b036105df8b6142bb565b16876105ea866130b7565b1690336133ed565b825260026020526040822055506130b7565b926130b7565b9161061860405180966126f7565b166020840152166040820152877fb85de6803233e8880c2e29e9e2dec74222e0451380b4fcbdc5ee0ac255ae9e62606060ff851693a30161050e565b8480fd5b634e487b7160e01b89526004899052602489fd5b634e487b7160e01b89526041600452602489fd5b915082359060028210156106d65760608161069e82936001956126f7565b61ffff6106ad60208801612809565b16602082015261ffff6106c260408801612809565b1660408201520193019101918391926104a8565b8c80fd5b6106e581838561385d565b803590600282101561075d5761071760206001600160a01b03610707856142bb565b1692019161ffff6105ea846130b7565b8852600260205260408820548061074b57506001929161ffff61073c610745936130b7565b16903390614310565b01610417565b63828694bb60e01b8952600452602488fd5b8780fd5b600181019081811161080657815b83811061077d57505061040d565b61078882858761385d565b3560028110156108025761079d82868861385d565b359060028210156107fe5714806107ca575b6107bb5760010161076f565b630106a2d360e01b8852600488fd5b506107e160206107db84878961385d565b016130b7565b61ffff806107f560206107db868a8c61385d565b169116146107af565b8980fd5b8880fd5b634e487b7160e01b87526011600452602487fd5b63108cef9d60e31b8552600485fd5b61ffff61083c60406107db85878961385d565b169081156108585760019161085091612f12565b9101906103fa565b63108cef9d60e31b8852600488fd5b63e464bf7560e01b8552600485fd5b50605081116103f3565b6351cd055160e01b8552600485fd5b90506020813d6020116108c5575b816108aa6020938361290a565b810103126108c1576108bb9061406b565b5f6103e4565b8580fd5b3d915061089d565b6040513d88823e3d90fd5b63b802300360e01b8652600486fd5b90506020813d602011610919575b816109026020938361290a565b810103126108c15761091390614078565b5f6103a5565b3d91506108f5565b63162908e360e11b8552600485fd5b5080fd5b50346102db5760203660031901126102db576004356001600160401b038111610930576109659036906004016127d9565b825b818110610972578380f35b806109896109836001938587612f02565b3561408c565b01610967565b50346102db5760203660031901126102db57604060609160043581526001602052208054906001808060a01b03910154166040519160018060a01b038116835260a01c60208301526040820152f35b50346102db57806003193601126102db576040517f00000000000000000000000000000000000000000000000000000000000000006001600160a01b03168152602090f35b5034610cc4576060366003190112610cc45760243561ffff8116600435818303610cc4576044356001600160601b038116809103610cc457610a63612fea565b610a6c82613db2565b9060408201600181515103610e5e5751805115610e4a57602001516020810151956002871015610e365786610aa092613e0e565b610aa9856142bb565b946001600160601b038351169560018060a01b03169560405163088f11f360e01b815286600482015260a0816024818b5afa938415610cb9575f945f955f935f92610dd7575b5015908115610dc5575b8115610d9f575b50610d545760206024996040519a8b8092630b02f02d60e31b82528c60048301525afa988915610cb9575f99610d63575b506001600160a01b038581169916899003610d5457808203610d3f575011610d3057835f526006602052610b6760405f20612e7a565b602083019160018060a01b03835116906001600160601b0385511692155f14610cc857507f00000000000000000000000000000000000000000000000000000000000000006001600160a01b031691823b15610cc4575f6024916040519283809263104c9fd360e31b82528b6004830152875af18015610cb957610ca2575b50908791813b15610c9e5782916044839260405194859384926322dca8bb60e21b845260048401528b60248401525af18015610c9357610c7e575b50507f537afea1137614386dde2e3f3f603a09e8ba6fbcd0a9d59b286a6f7e5fc93848916001600160601b036040925b51915183516001600160a01b039093168352166020820152a460015f516020614daa5f395f51905f525580f35b81610c889161290a565b6108c157855f610c21565b6040513d84823e3d90fd5b8280fd5b610cb0919298505f9061290a565b5f96905f610be6565b6040513d5f823e3d90fd5b5f80fd5b92610d2b83604095610d266001600160601b03957f537afea1137614386dde2e3f3f603a09e8ba6fbcd0a9d59b286a6f7e5fc9384899978c7f0000000000000000000000000000000000000000000000000000000000000000614750565b613022565b610c51565b632603999760e11b5f5260045ffd5b63f8c892ad60e01b5f5260045260245260445ffd5b63d6ea415160e01b5f5260045ffd5b9098506020813d602011610d97575b81610d7f6020938361290a565b81010312610cc457610d9090614078565b975f610b31565b3d9150610d72565b6001600160a01b0316801515915081610dba575b505f610b00565b90503014155f610db3565b6001600160a01b038716159150610af9565b96505050905060a0843d60a011610e2e575b81610df660a0938361290a565b81010312610cc457610e078461406b565b90610e1460408601614078565b610e25608060608801519701614078565b9095925f610aef565b3d9150610de9565b634e487b7160e01b5f52602160045260245ffd5b634e487b7160e01b5f52603260045260245ffd5b63419f477b60e11b5f5260045ffd5b34610cc4576020366003190112610cc457600435610e89612fea565b610eb96001600160601b03610e9d836137ff565b5416825f526006602052610eb360405f20612e7a565b33613022565b7fc28b4aed030bfacc245c0501326e1beb8c0ef0d60e4edc21067fdeb52da2a7aa5f80a260015f516020614daa5f395f51905f5255005b34610cc45760206102b3610f1c610f0636612872565b9391610f13939193612fea565b6102a68461383c565b9061376c565b34610cc4575f366003190112610cc4576040517f00000000000000000000000000000000000000000000000000000000000000006001600160a01b03168152602090f35b34610cc4575f366003190112610cc4576040517f00000000000000000000000000000000000000000000000000000000000000006001600160a01b03168152602090f35b6040366003190112610cc457600435610fc16127c3565b610fc9612fea565b6001600160601b03811680156110d057610fe2836137ff565b906001600160601b038254168082115f146110a1576001600160601b036110098286612e24565b163403611092577f2210e3202f70de62d22b52cf9a56f7a793017f417417279ec44f90e881268c95936020935b80546bffffffffffffffffffffffff19168417905581831061106f575b5050604051908152a260015f516020614daa5f395f51905f5255005b6110846001600160601b039161108b93612e24565b1633613022565b8480611053565b63569e8c1160e01b5f5260045ffd5b34611092577f2210e3202f70de62d22b52cf9a56f7a793017f417417279ec44f90e881268c9593602093611036565b63162908e360e11b5f5260045ffd5b34610cc45760206102b36110f236612818565b916110fb612fea565b61376c565b34610cc45761110e36612818565b90611117612fea565b5f818152600160205260409020546001600160a01b0316801561118857330361117957805f526003602052602860405f20541161116a57611157926136c8565b60015f516020614daa5f395f51905f5255005b63716b26cb60e01b5f5260045ffd5b635ec8235160e01b5f5260045ffd5b632fa05a2d60e21b5f5260045ffd5b34610cc4575f366003190112610cc4576020600754604051908152f35b6040366003190112610cc4576004356111cb6127c3565b906111d4612fea565b805f52600160205260405f20604051906111ed826128b8565b80546001600160a01b0380821680855260a09290921c60208501908152600190930154166040840190815291949015611188576001600160601b038086511691168082036113ab575050516001600160a01b0316801515806113a1575b61138f57506001600160601b038034169351168084106113785750815f52600360205260405f2090815461127d8161292b565b9261128b604051948561290a565b81845260208401905f5260205f205f915b838310611333575050505060018060a01b0381511682515f5b8181106112ff5760206102b388888888825f52600186525f6001604082208281550155825f52600386526112eb60405f2061294e565b5133926001600160a01b039091169061343d565b6113098186612e03565b51908151916002831015610e36576001928561ffff602061132d9401511691614310565b016112b5565b600160208192604051611345816128b8565b61ffff865461135760ff821684612942565b818160081c168584015260181c16604082015281520192019201919061129c565b8390630a9026a360e31b5f5260045260245260445ffd5b63139d06fb60e21b5f5260045260245ffd5b503381141561124a565b6316dccdf160e01b5f5260045260245260445ffd5b34610cc4576060366003190112610cc4576004356113dc6127c3565b6113e46127ad565b5f83815260016020526040902080549092906001600160a01b03168015611188573303611179576001600160601b038116156110d05782546001600160a01b031960a083901b81166001600160a01b039283161785556001909401805493909116929093168217909255604080516001600160601b03909316835260208301919091527fd2f2035582c127c2e6b0e0c46d5800e8dc954f6d1bfa8f9ebbd0a427f75de4b691a2005b34610cc4576060366003190112610cc4576114a5612797565b602435906002821015610cc4576044359061ffff8216809203610cc4576114df926001600160a01b03906114d8906142bb565b16906133ed565b5f526002602052602060405f2054604051908152f35b34610cc4576020366003190112610cc457600435611511612fea565b805f52600860205260405f20906040519061152b826128d3565b60018060a01b0383541682526001830154926002602084019160018060a01b0386168352604085019560a01c8652015464ffffffffff811690606085019180835260ff608087019260281c1615158252156117925751611783575164ffffffffff1642111561177457815f526008602052600260405f20016501000000000060ff60281b19825416179055815f52600960205260405f2080546115cd8161292b565b916115db604051938461290a565b81835260208301905f5260205f205f915b83831061172f5750508651845161161893506001600160a01b031691506001600160601b03168361316c565b908051915f5b83811061169c575050505060206001600160601b037f3e25c3675d003af5184b628dd8bd4775b9b3abc7351c3574c90870ca25b55f119261166c60018060a01b038751168389511690613022565b5194519551604051911681526001600160a01b039586169590941693a460015f516020614daa5f395f51905f5255005b806116b26116ac60019386612e03565b51612e17565b61ffff60206116c18488612e03565b51015116838060a01b038851166001600160601b036116e08588612e03565b5116916116f060405180956126f7565b602084015260408301526060820152877fe217556dfd720747411b8c5ff76a3b9e2bb96916f32172d5af04fb17cabc79d2608060ff851693a30161161e565b600160208192604051611741816128b8565b61ffff865461175360ff821684612942565b818160081c168584015260181c1660408201528152019201920191906115ec565b634a88586b60e11b5f5260045ffd5b634f4fee1760e01b5f5260045ffd5b63e6759c6760e01b5f5260045ffd5b34610cc4576020366003190112610cc4576004355f908152600660209081526040918290205482516001600160601b038216815260609190911c9181019190915290819081015b0390f35b34610cc4576020366003190112610cc4576004355f526008602052602064ffffffffff600260405f20015416604051908152f35b34610cc4575f366003190112610cc45760205f54604051908152f35b34610cc4576020366003190112610cc4576004355f526008602052602064ffffffffff600260405f20015416801515908161187d575b506040519015158152f35b905042111582611872565b34610cc4575f366003190112610cc4576020600554604051908152f35b34610cc4576020366003190112610cc4576004355f526002602052602060405f2054604051908152f35b34610cc4576020366003190112610cc4576004355f52600860205260a060405f2060ff600180841b03825416916002600182015491015490604051938452600180861b0381166020850152841c604084015264ffffffffff8116606084015260281c1615156080820152f35b34610cc4575f366003190112610cc4576040517f00000000000000000000000000000000000000000000000000000000000000006001600160a01b03168152602090f35b6040366003190112610cc4576004356001600160601b038116809103610cc4576024356001600160401b038111610cc4576119be9036906004016127d9565b82156110d0578234036110925780158015611fc4575b611fb5575f5b818110611d535750600580546001908101918290555f8281526006602052604081206001600160601b0387163360601b6bffffffffffffffffffffffff1916178155929592909101905b838110611ba957505060405190815260ff82166020820152837fed259ab1d54fa64e5ad6bc4d26def5e098cb15a73dbd45c474133fd9ffb8ee6460403393a35f5b818110611a7757602084604051908152f35b611a82818385612de0565b90610140820135916002831015610cc457857f0e98ec08877d2d029fd3116f858524bdbe3a586912e591881f44eeab407a38c4611af4600195611ba0610120611b8c611ad2610160890189613082565b60ff611b71611ae56101808d018d613082565b96909c6040519a8b809b6126f7565b803560208b0152602081013560408b0152604081013560608b0152606081013560808b0152608081013560a08b015260a081013560c08b015261ffff611b3c60c08301612809565b1660e08b015261ffff611b5160e08301612809565b166101008b015283611b666101008301613074565b16828b015201613074565b166101408701526101a06101608701526101a0860191613130565b9083820361018085015260ff891697613130565b0390a301611a65565b611bb4818587612de0565b8254600160401b811015611d3f5760018101808555811015610e4a57835f52600a60205f20910201813581556020820135600182015560408201356002820155606082013560038201556080820135600482015560a082013560058201556006810161ffff611c2560c085016130b7565b16815463ffff0000611c3960e087016130b7565b60101b1664ff00000000611c5061010088016130c6565b60201b169160ff60281b611c6761012089016130c6565b60281b169360ff60281b199164ffffffffff1916171617171790556101408201356002811015610cc457611c9e90600783016130d4565b6101608201611cad8184613082565b916008840191505f5b838110611d1c57505050506101808201611cd08184613082565b93905060095f9301925b848110611cee575050505050600101611a24565b80611d16611d10611d0b600194611d058888613082565b90612f02565b6130b7565b866130ec565b01611cda565b80611d39611d33611d0b600194611d05878c613082565b856130ec565b01611cb6565b634e487b7160e01b5f52604160045260245ffd5b611d5e818385612de0565b61014081360312610cc457604051611d75816128ee565b8135908181526020830135918260208301526040840135806040840152606083016060860135815260808401906080870135825260a085019060a08801358252611dc160c08901612809565b9460c08701958652611dd560e08a01612809565b9460e08801958652611dea6101008b01613074565b986101008901998a52610120611e01818d01613074565b990198895260016001606f1b031983161580159390611fa1575b8315611f8d575b8315611f81575b508215611f75575b5050611f66575191519051906403ffffffff60de1b83161592831593611f52575b8315611f3e575b8315611f31575b8315611f24575b8315611f17575b8315611f0b575b508215611eff575b5050611ef057611eaa93611e9f60ff939261ffff808695511691511690614a82565b511691511690614adf565b6040611eba610160830183613082565b905011611ee157611ed2816101806040930190613082565b905011611ee1576001016119da565b633b91e02960e11b5f5260045ffd5b63bb3ab50d60e01b5f5260045ffd5b16151590508a80611e7d565b8116151592508c611e75565b6001831615159350611e6e565b6001821615159350611e67565b6001811615159350611e60565b6001600160de1b0319831615159350611e59565b6001600160de1b0319821615159350611e52565b630148b7f360e71b5f5260045ffd5b16151590508d80611e31565b8116151592508f611e29565b60016001606f1b0319831615159350611e22565b60016001606f1b0319821615159350611e1b565b637894fcef60e01b5f5260045ffd5b50605081116119d4565b34610cc4576020366003190112610cc4576004355f52600960205260405f208054611ff88161292b565b91612006604051938461290a565b81835260208301905f5260205f205f915b83831061202c57604051806117e88782612704565b60016020819260405161203e816128b8565b61ffff865461205060ff821684612942565b818160081c168584015260181c166040820152815201920192019190612017565b6020366003190112610cc457600435612088612fea565b805f52600860205260405f2090604051916120a2836128d3565b60018060a01b0381541683526001810154926002602082019260018060a01b0386168452604083019560a01c8652015464ffffffffff811660ff60806060850194838652019260281c16151582521561179257516117835764ffffffffff815116421161228c576001600160601b033416936001600160601b0361212881835116612f1f565b1680861061227557505f84815260086020526040902060a086901b6001600160a01b031916331760018201559164ffffffffff90511664ffffffffff421680910364ffffffffff81116122615764ffffffffff6103849116106121f6575b506001600160601b0391505116806121da575b50506040519182527fdcd726e11f8b5e160f00290f0fe3a1abb547474e53a8e7a8f49a85e7b1ca319960203393a360015f516020614daa5f395f51905f5255005b90516121ef91906001600160a01b0316613022565b8280612199565b610384019164ffffffffff8311612261577fd5372c5c15498afb37287484b84287add0e88d280a030a091400a9abd29e768060206001600160601b0394600288940164ffffffffff821664ffffffffff1982541617905564ffffffffff60405191168152a285612186565b634e487b7160e01b5f52601160045260245ffd5b85906318d8efab60e21b5f5260045260245260445ffd5b6334dc687f60e11b5f5260045ffd5b34610cc4575f366003190112610cc4576122b3612fea565b335f52600460205260405f2054801561233857335f5260046020525f60408120555f80808084335af16122e4612da2565b5015612329576040519081527f7fcf532c15f0a6db0bd6d0e038bea71d30d808c7d98cb3bf7268a95bf5081b6560203392a260015f516020614daa5f395f51905f5255005b63a124823560e01b5f5260045ffd5b63177b02e160e31b5f5260045ffd5b34610cc4575f366003190112610cc4576040517f00000000000000000000000000000000000000000000000000000000000000006001600160a01b03168152602090f35b34610cc4576020366003190112610cc4576001600160a01b036123ac612797565b165f526004602052602060405f2054604051908152f35b34610cc4576020366003190112610cc4576004355f5260066020526123ed600160405f2001612c8b565b6040518091602082016020835281518091526040830190602060408260051b8601019301915f905b82821061242457505050500390f35b919360019193955060206124ef8192603f198a820301865288519060ff610120835180518452868101518785015260408101516040850152606081015160608501526080810151608085015260a081015160a085015261ffff60c08201511660c085015261ffff60e08201511660e085015282610100820151166101008501520151166101208201526124bf848301516101408301906126f7565b60606124dd60408401516101a06101608501526101a0840190612760565b92015190610180818403910152612760565b9601920192018594939192612415565b34610cc4576020366003190112610cc4576004355f818152600160205260409020546001600160a01b031680156111885733810361117957815f52600360205260405f2090815461254f8161292b565b9261255d604051948561290a565b81845260208401905f5260205f205f915b8383106125ce57866125808787612f81565b805f5260016020525f6001604082208281550155805f5260036020526125a860405f2061294e565b7fa9a25efaf7732f9dfc3e7f1e3f417f05703c1be4813e84518289c859ab682b455f80a2005b6001602081926040516125e0816128b8565b61ffff86546125f260ff821684612942565b818160081c168584015260181c16604082015281520192019201919061256e565b34610cc4576020366003190112610cc4576004355f5260086020526020612643600160405f20015460a01c612f1f565b6001600160601b0360405191168152f35b34610cc4576020366003190112610cc4576004355f52600360205260405f20805461267e8161292b565b9161268c604051938461290a565b81835260208301905f5260205f205f915b8383106126b257604051806117e88782612704565b6001602081926040516126c4816128b8565b61ffff86546126d660ff821684612942565b818160081c168584015260181c16604082015281520192019201919061269d565b906002821015610e365752565b60206040818301928281528451809452019201905f5b8181106127275750505090565b9091926020606060019261ffff604088516127438482516126f7565b80860151831684870152015116604082015201940192910161271a565b90602080835192838152019201905f5b81811061277d5750505090565b825161ffff16845260209384019390920191600101612770565b600435906001600160a01b0382168203610cc457565b604435906001600160a01b0382168203610cc457565b602435906001600160601b0382168203610cc457565b9181601f84011215610cc4578235916001600160401b038311610cc4576020808501948460051b010111610cc457565b359061ffff82168203610cc457565b6060906003190112610cc45760043590602435906044356001600160601b0381168103610cc45790565b9181601f84011215610cc4578235916001600160401b038311610cc45760208085019460608502010111610cc457565b6060600319820112610cc457600435906001600160401b038211610cc45761289c91600401612842565b9091602435906044356001600160601b0381168103610cc45790565b606081019081106001600160401b03821117611d3f57604052565b60a081019081106001600160401b03821117611d3f57604052565b61014081019081106001600160401b03821117611d3f57604052565b90601f801991011681019081106001600160401b03821117611d3f57604052565b6001600160401b038111611d3f5760051b60200190565b6002821015610e365752565b8054905f81558161295d575050565b5f5260205f205f5b82811061297157505050565b5f82820155600101612965565b90604051918281549182825260208201905f5260205f20925f905b80600f830110612ba357612a2f945491818110612b8e575b818110612b76575b818110612b5f575b818110612b47575b818110612b2f575b818110612b17575b818110612aff575b818110612ae7575b818110612acf575b818110612ab7575b818110612a9f575b818110612a87575b818110612a6f575b818110612a57575b818110612a3f575b10612a31575b50038361290a565b565b60f01c81526020015f612a27565b92602060019161ffff8560e01c168152019301612a21565b92602060019161ffff8560d01c168152019301612a19565b92602060019161ffff8560c01c168152019301612a11565b92602060019161ffff8560b01c168152019301612a09565b92602060019161ffff8560a01c168152019301612a01565b92602060019161ffff8560901c1681520193016129f9565b92602060019161ffff8560801c1681520193016129f1565b92602060019161ffff8560701c1681520193016129e9565b92602060019161ffff8560601c1681520193016129e1565b92602060019161ffff8560501c1681520193016129d9565b92602060019161ffff8560401c1681520193016129d1565b92602060019161ffff8560301c1681520193016129c9565b92602060019161ffff85831c1681520193016129c1565b92602060019161ffff8560101c1681520193016129b9565b92602060019161ffff851681520193016129b1565b916010919350610200600191865461ffff8116825261ffff81861c16602083015261ffff8160201c16604083015261ffff8160301c16606083015261ffff8160401c16608083015261ffff8160501c1660a083015261ffff8160601c1660c083015261ffff8160701c1660e083015261ffff8160801c1661010083015261ffff8160901c1661012083015261ffff8160a01c1661014083015261ffff8160b01c1661016083015261ffff8160c01c1661018083015261ffff8160d01c166101a083015261ffff8160e01c166101c083015260f01c6101e0820152019401920185929391612999565b90815491612c988361292b565b92612ca6604051948561290a565b80845260208401915f5260205f20915f905b828210612cc55750505050565b604051608081018181106001600160401b03821117611d3f57600192600a92602092604052604051612cf6816128ee565b885481528589015484820152600289015460408201526003890154606082015260048901546080820152600589015460a082015260ff60068a015461ffff811660c084015261ffff8160101c1660e08401528181871c1661010084015260281c166101208201528152612d7260ff60078a015416848301612942565b612d7e6008890161297e565b6040820152612d8f6009890161297e565b6060820152815201940191019092612cb8565b3d15612ddb573d906001600160401b038211611d3f5760405191612dd0601f8201601f19166020018461290a565b82523d5f602084013e565b606090565b9190811015610e4a5760051b8101359061019e1981360301821215610cc4570190565b8051821015610e4a5760209160051b010190565b516002811015610e365790565b906001600160601b03809116911603906001600160601b03821161226157565b80545f825580612e52575050565b600f0160041c905f5260205f205f5b828110612e6d57505050565b5f82820155600101612e61565b6001905f8155018054905f815581612e90575050565b81600a0291600a830403612261575f5260205f205f5b828110612eb257505050565b80612efc6009600a9385015f81555f60018201555f60028201555f60038201555f60048201555f60058201555f60068201555f6007820155612ef660088201612e44565b01612e44565b01612ea6565b9190811015610e4a5760051b0190565b9190820180921161226157565b6001600160601b0316612af8810290808204612af81490151715612261576127108101908181116122615761270f019081116122615761271090046001600160601b03811115612f7557506001600160601b0390565b6001600160601b031690565b908051905f5b828110612f945750505050565b612f9e8183612e03565b519081516002811015610e3657600192612fd79161ffff906020906001600160a01b0390612fcb906142bb565b169201511690876133ed565b5f5260026020525f604081205501612f87565b60025f516020614daa5f395f51905f5254146130135760025f516020614daa5f395f51905f5255565b633ee5aeb560e01b5f5260045ffd5b9080158015613063575b61305f575f808080846001600160a01b03871662017318f161304c612da2565b5015613056575050565b612a2f9161424f565b5050565b506001600160a01b0382161561302c565b359060ff82168203610cc457565b903590601e1981360301821215610cc457018035906001600160401b038211610cc457602001918160051b36038313610cc457565b3561ffff81168103610cc45790565b3560ff81168103610cc45790565b906002811015610e365760ff80198354169116179055565b90815491600160401b831015611d3f5760018301808255831015610e4a575f5260205f208260041c019161ffff8060f085549360041b169316831b921b1916179055565b916020908281520191905f5b8181106131495750505090565b90919260208060019261ffff61315e88612809565b16815201940192910161313c565b90929181519061317b8261292b565b94613189604051968761290a565b828652601f196131988461292b565b013660208801375f198301838111945f927f00000000000000000000000000000000000000000000000000000000000000006001600160a01b0316928992909190855b8887106131ee5750505050505050505050565b866131fa8b9884612e03565b5197612261578085036133b45761323b61321d6001600160601b03841686612e24565b6001600160601b0361322f848a612e03565b91169384809252612f12565b978051906002821015610e36576020015161ffff169261325a826142bb565b6001600160a01b03811692908a3b15610cc4575f91828c606460405180968193630ab4a1fb60e41b83528a60048401528c60248401528960448401525af1928315610cb9578e936133a4575b5061338e575050813b15610cc4575f6024916040519283809263104c9fd360e31b8252886004830152865af18015610cb95761337e575b50873b15610cc457604051633341fddb60e01b8152600481018290525f81602481838d5af18015610cb95761336e575b50803b15610cc4576040516322dca8bb60e21b81526001600160a01b038b16600482015260248101939093525f908390604490829084905af1918215610cb95760019261335e575b505b01956131db565b5f6133689161290a565b5f613355565b5f6133789161290a565b5f61330d565b5f6133889161290a565b5f6132dd565b61339f935094600195929192614750565b613357565b5f6133ae9161290a565b5f6132a6565b604088015161ffff166001600160601b038516818102918115918304141715612261576001600160601b0361271061323b92041661321d565b604080516001600160a01b0392831660208201908152929093169083015260608083019390935291815261342260808261290a565b51902090565b8054821015610e4a575f5260205f2001905f90565b919493929092600160075401928360075583966201518064ffffffffff4216019264ffffffffff8411612261579593908591815160ff169160405196613482886128d3565b600160a01b600190038116968789526020890193600160a01b60019003169a8b855260408a01906001600160601b0316998a8252606081019264ffffffffff169586845260808201925f8452895f52600860205260405f2092600160a01b6001900390600160a01b60019003905116166001600160601b0360a01b8454161783556001830191600160a01b6001900390600160a01b60019003905116166001600160601b0360a01b835416178255516001600160601b031661356091908154906001600160601b0360a01b9060a01b169060018060a01b0316179055565b600201915164ffffffffff1664ffffffffff1664ffffffffff1983541617825551151581549060281b60ff60281b169060ff60281b1916179055845f52600960205260405f205f5b85811061361a5750507fdcd726e11f8b5e160f00290f0fe3a1abb547474e53a8e7a8f49a85e7b1ca319997959360209795936136077f157f7be22fa9dc3b15bb36d46c9d7e018bfe59bf18389bf5e304dca2620a56af94604094614331565b825191825288820152a4604051908152a3565b9091929394955061362b8185612e03565b51908254600160401b811015611d3f5780600161364b9201855584613428565b6136b5578251906002821015610e365761ffff60406001956136706136a895856130d4565b6020810151845462ffff00191690841660081b62ffff00161784550151825464ffff0000001916911660181b64ffff00000016179055565b01908995949392916135a8565b634e487b7160e01b5f525f60045260245ffd5b7f6eced9aec4c3c22c26789eee9f3873decbd6c5d881f477d628f351ab9ec8109c60406136fe6001600160601b039585856144d1565b96906137138860018060a01b03835116614331565b6137308284511698602085019960018060a01b038b51169161316c565b508051835161374b91908416906001600160a01b0316613022565b519651915183516001600160a01b03938416815291166020820152951694a4565b6060907ffff94357c57e8fd7363e080263c509e011c02a5de5950c137d05e51ee87beb446137a46001600160601b03969585846144d1565b81516020840180518551949895919491936137d093928d16926001600160a01b0392831692168b61343d565b955191519051604080516001600160a01b039485168152929093166020830152909816908801529295869390a4565b5f52600660205260405f2090815460601c801561382d57330361381e57565b630f147a5960e31b5f5260045ffd5b634d80826b60e11b5f5260045ffd5b5f52600660205260405f20548060601c1561382d576001600160601b031690565b9190811015610e4a576060020190565b92916001600160601b03169283156110d0576040516327a4e1ab60e01b81523360048201526020816024817f00000000000000000000000000000000000000000000000000000000000000006001600160a01b03165afa908115610cb9575f91613d59575b50803b15613d4a576040516336b87bd760e11b815230600482015290602090829060249082906001600160a01b03165afa908115610cb9575f91613d10575b5015613d015781158015613cf7575b613ce8575f805b838210613cb957612710915003613caa575f5b828110613c1357505f5b828110613ba9575060ff82169060015f540192835f558395604051613968816128b8565b33815260208082018381525f60408085018281528a835260018086528284209651945160a01b6001600160a01b03199081166001600160a01b039687161788559151960180549690941695169490941790915582518083019283529283018590529091908590829060608201905b878110613b5357506139f1925003601f19810183528261290a565b519020906040519085825260208201525f6040820152857fb8ff0a3912062080529838acbd1749971542ee69635ec0dec6c28e7784a13d9360603393a4835f52600360205260405f20915f5b848110613a4c57505050505050565b613a5781848461385d565b908454600160401b811015611d3f57806001613a769201875586613428565b9290926136b5578035906002821015610cc4578361ffff613b096106048294613aa18760019a6130d4565b613ada60406020830192613acf613ab7856130b7565b895462ffff00191660089190911b62ffff0016178955565b01956105b2876130b7565b613af7898060a01b03613aec896142bb565b16856105ea846130b7565b5f5260026020528d60405f20556130b7565b91613b1760405180966126f7565b166020840152166040820152877fb85de6803233e8880c2e29e9e2dec74222e0451380b4fcbdc5ee0ac255ae9e62606060ff851693a301613a3d565b91508235906002821015610cc457606081613b7182936001956126f7565b61ffff613b8060208801612809565b16602082015261ffff613b9560408801612809565b1660408201520193019101918391926139d6565b613bb481848461385d565b8035906002821015610cc457613bd660206001600160a01b03610707856142bb565b5f52600260205260405f205480613c0157506001929161ffff61073c613bfb936130b7565b01613944565b63828694bb60e01b5f5260045260245ffd5b600181019081811161226157815b848110613c2f57505061393a565b613c3a82868661385d565b356002811015610cc457613c4f82878761385d565b35906002821015610cc4571480613c7c575b613c6d57600101613c21565b630106a2d360e01b5f5260045ffd5b50613c8d60206107db84888861385d565b61ffff80613ca160206107db868b8b61385d565b16911614613c61565b63108cef9d60e31b5f5260045ffd5b61ffff613ccc60406107db85888861385d565b16908115613caa57600191613ce091612f12565b910190613927565b63e464bf7560e01b5f5260045ffd5b5060508211613920565b6351cd055160e01b5f5260045ffd5b90506020813d602011613d42575b81613d2b6020938361290a565b81010312610cc457613d3c9061406b565b5f613911565b3d9150613d1e565b63b802300360e01b5f5260045ffd5b90506020813d602011613d8b575b81613d746020938361290a565b81010312610cc457613d8590614078565b5f6138d2565b3d9150613d67565b60405190613da0826128b8565b60606040835f81525f60208201520152565b613dba613d93565b505f52600660205260405f2090604051613dd3816128b8565b613df760018454946001600160601b0386168452602084019560601c865201612c8b565b604082015291516001600160a01b03161561382d57565b9060208201516002811015610e36576002821015610e36570361405c5760608101805151905f5b82811061402b5750505060408101805151905f5b828110614002575050151580613f3a575b613ec057518051602082015160408301517f00000000000000000000000000000000000000000000000000000000000000006001600160a01b03169392613ea392908686614b38565b9283613f18575b83613ef3575b83613ecf575b50505015613ec057565b633f62ff9f60e01b5f5260045ffd5b613eeb935060ff61012081610100850151169301511692614d0c565b5f8080613eb6565b9250613f1261ffff60c08301511661ffff60e084015116908585614c5b565b92613eb0565b9250613f346060820151608083015160a0840151918686614ba2565b92613eaa565b5080518051159081613ff5575b81613fe8575b81613fdb575b81613fce575b81613fc1575b81613fb0575b81613f9f575b81613f8e575b81613f7d575b50613e5a565b60ff9150610120015116155f613f77565b61010081015160ff16159150613f71565b60e081015161ffff16159150613f6b565b60c081015161ffff16159150613f65565b60a0810151159150613f5f565b6080810151159150613f59565b6060810151159150613f53565b6040810151159150613f4d565b6020810151159150613f47565b61ffff614010828451612e03565b511661ffff86161461402457600101613e49565b5050505050565b61ffff614039828451612e03565b511661ffff86161461404d57600101613e35565b635c53783360e11b5f5260045ffd5b63df965c5f60e01b5f5260045ffd5b51908115158203610cc457565b51906001600160a01b0382168203610cc457565b805f52600160205260405f20604051906140a5826128b8565b80546001600160a01b0380821680855260a09290921c602085015260019092015490911660408301521561118857815f52600360205260405f2080546140ea8161292b565b916140f8604051938461290a565b81835260208301905f5260205f205f915b83831061420a575050835161412992506001600160a01b0316905061484e565b1580156141aa575b1561419b57905161414b91906001600160a01b0316612f81565b805f5260016020525f6001604082208281550155805f52600360205261417360405f2061294e565b33907fe54e1f810570f2b9e608f7a518996c3297441297735fc776657b8f02f9fd9d215f80a3565b632703cd1160e21b5f5260045ffd5b81515f5b8181106141bd575b5050614131565b6141f16141cd6116ac8387612e03565b86516001600160a01b031661ffff60206141e7868a612e03565b5101511691614960565b156141fe576001016141ae565b50505060015f806141b6565b60016020819260405161421c816128b8565b61ffff865461422e60ff821684612942565b818160081c168584015260181c166040820152815201920192019190614109565b811580156142aa575b61305f5760207f9c9e0cdb1670e88302408e5b941dc636f63a3293204694bb68910fcf3d9305f39160018060a01b031692835f526004825260405f2061429f828254612f12565b9055604051908152a2565b506001600160a01b03811615614258565b6002811015610e36576142ec577f000000000000000000000000000000000000000000000000000000000000000090565b7f000000000000000000000000000000000000000000000000000000000000000090565b9061431b9291614960565b1561432257565b631a25c93560e01b5f5260045ffd5b81516001600160a01b037f000000000000000000000000000000000000000000000000000000000000000081169391927f0000000000000000000000000000000000000000000000000000000000000000909116915f5b84811061439757505050505050565b6143a18183612e03565b519081516002811015610e36576001600160a01b03906143c0906142bb565b16916143d7602082019361ffff85511690876133ed565b5f5260026020525f604081205551916002831015610e3657516040516327a4e1ab60e01b81526001600160a01b038616600482015261ffff909116906020816024818a5afa908115610cb9575f91614498575b506001600160a01b0390811693614440906142bb565b1690833b15610cc45760645f928360405196879485936330251cdf60e21b8552600485015260248401528c60448401525af1918215610cb957600192614488575b5001614388565b5f6144929161290a565b5f614481565b90506020813d82116144c9575b816144b26020938361290a565b81010312610cc4576144c390614078565b5f61442a565b3d91506144a5565b9190926144dc613d93565b505f604080516144eb816128b8565b82815282602082015201526144ff83613db2565b93805f52600160205260405f20936040519361451a856128b8565b85546001600160a01b0380821680885260a09290921c6020880190815260019098015416604087019081529596879692909115611188576001600160601b03808a5116911680821061473b5750506001600160601b0380895116915116808210614726575050516001600160a01b03168015158061470f575b61138f5750815f52600360205260405f2080546145af8161292b565b916145bd604051938461290a565b81835260208301905f5260205f205f915b8383106146ca57505050508094604088015180518351036146bb5782515f5b81811061467c575050508151915f5b83811061464157505050505f52600660205261461a60405f20612e7a565b805f5260016020525f60016040822082815501555f526003602052612a2f60405f2061294e565b806146766146546116ac60019486612e03565b838060a01b0386511661ffff602061466c8689612e03565b5101511691614310565b016145fc565b6146868186612e03565b51906146928185612e03565b51918051926002841015610e365760019361ffff60206146b59401511691613e0e565b016145ed565b6302f68e4f60e21b5f5260045ffd5b6001602081926040516146dc816128b8565b61ffff86546146ee60ff821684612942565b818160081c168584015260181c1660408201528152019201920191906145ce565b5060208701516001600160a01b0316811415614593565b630a9026a360e31b5f5260045260245260445ffd5b630afd42bd60e01b5f5260045260245260445ffd5b919290916001600160a01b031690813b15610cc45760405163104c9fd360e31b81525f816024818398886004830152875af18015610cb957614839575b50813b1561481557604051633ccfd60b60e01b8152848160048183875af1801561482e57908591614819575b5050813b15614815576040516322dca8bb60e21b81526001600160a01b03919091166004820152602481019290925282908290604490829084905af18015610c9357614803575050565b61480e82809261290a565b6102db5750565b8380fd5b816148239161290a565b61481557835f6147b9565b6040513d87823e3d90fd5b6148469194505f9061290a565b5f925f61478d565b6040516327a4e1ab60e01b81526001600160a01b03918216600482015290602090829060249082907f0000000000000000000000000000000000000000000000000000000000000000165afa908115610cb9575f91614926575b50803b15614921576040516336b87bd760e11b815230600482015290602090829060249082906001600160a01b03165afa908115610cb9575f916148ea575090565b90506020813d602011614919575b816149056020938361290a565b81010312610cc4576149169061406b565b90565b3d91506148f8565b505f90565b90506020813d602011614958575b816149416020938361290a565b81010312610cc45761495290614078565b5f6148a8565b3d9150614934565b6020906001600160a01b0390614975906142bb565b1692602460405180958193630b02f02d60e31b835260048301525afa918215610cb9575f92614a46575b506040516327a4e1ab60e01b81526001600160a01b03918216600482015290602090829060249082907f0000000000000000000000000000000000000000000000000000000000000000165afa908115610cb9575f91614a0c575b506001600160a01b0391821691161490565b90506020813d602011614a3e575b81614a276020938361290a565b81010312610cc457614a3890614078565b5f6149fa565b3d9150614a1a565b9091506020813d602011614a7a575b81614a626020938361290a565b81010312610cc457614a7390614078565b905f61499f565b3d9150614a55565b9061ffff16908115614ad35761ffff1690808211918215614ac8575b508115614abc575b50614aad57565b63690c5bc960e11b5f5260045ffd5b61014c9150115f614aa6565b60941191505f614a9e565b61ffff915016614aad57565b9060ff16908115614b2d5760ff1690808211918215614b22575b508115614b17575b50614b0857565b63721d11f160e11b5f5260045ffd5b600e9150115f614b01565b60021191505f614af9565b60ff915016614b0857565b9290939193828286171715614b98576040516371b7765360e01b815261ffff919091166004820152602481019490945260448401526064830152602090829060849082906001600160a01b03165afa908115610cb9575f916148ea575090565b5050505050600190565b92939190828583171715614b9857604051630e2382e560e01b815261ffff91909116600482015292602090849060249082906001600160a01b03165afa928315610cb9575f93614c27575b50808316149283614c1c575b5082614c0457505090565b80159250908215614c1457505090565b161515905090565b82161592505f614bf9565b9092506020813d602011614c53575b81614c436020938361290a565b81010312610cc45751915f614bed565b3d9150614c36565b90919261ffff16918215614d0357604051634a69ff2160e11b815261ffff91909116600482015290602090829060249082906001600160a01b03165afa908115610cb9575f91614cc4575b5061ffff80911692168210159182614cbd57505090565b1115919050565b90506020813d602011614cfb575b81614cdf6020938361290a565b81010312610cc4575161ffff81168103610cc45761ffff614ca6565b3d9150614cd2565b50505050600190565b90919260ff16918215614d035760405163e13d8da160e01b815261ffff91909116600482015290602090829060249082906001600160a01b03165afa908115610cb9575f91614d6c575b5060ff80911692168210159182614cbd57505090565b90506020813d602011614da1575b81614d876020938361290a565b81010312610cc4575160ff81168103610cc45760ff614d56565b3d9150614d7a56fe9b779b17422d0df92223018b32b4d1fa46e071723d6817e2486d003becc55f00a26469706673582212208babcb1b2e14258643e8bdcfb6cdfe9504298909f083a3e2d767914907a2b65864736f6c6343000822003360e080604052346101255773b47e3cd837ddf8e4c57f05d70ab865de6e193bbb60a052736ba6f2207e343923ba692e5cae646fb0f566db8d60c0523360805263c47f002760e01b8152602060048201819052601760248301527f657363726f772e70756e6b7361756374696f6e2e6574680000000000000000006044830152816064815f73a58e81fe9b61b5c3fe2afd33cf304c454abfc7cb5af18015610145576100e8575b604051610418908161015182396080518181816101500152818161020c01526102eb015260a051818181601d015261026e015260c0518181816066015260e90152f35b6020903d60201161013d575b601f8201601f19168101916001600160401b038311828410176101295760209260405281010312610125575f6100a5565b5f80fd5b634e487b7160e01b5f52604160045260245ffd5b3d91506100f4565b6040513d5f823e3d90fdfe6080806040526004361015610095575b50361561001a575f80fd5b337f00000000000000000000000000000000000000000000000000000000000000006001600160a01b0316141580610062575b61005357005b6338695c1960e21b5f5260045ffd5b50337f00000000000000000000000000000000000000000000000000000000000000006001600160a01b0316141561004d565b5f905f3560e01c90816330da111a1461025c575080633341fddb1461023b57806363779c74146101f7578063ab4a1fb01461011b5763f0a2c2450361000f57346101185780600319360112610118576040517f00000000000000000000000000000000000000000000000000000000000000006001600160a01b03168152602090f35b80fd5b50346101e45760603660031901126101e45761013561029d565b6044356bffffffffffffffffffffffff81168091036101e4577f00000000000000000000000000000000000000000000000000000000000000006001600160a01b031691338390036101e8576001600160a01b031691823b156101e45760645f9283604051958694859363bf31196f60e01b85526024356004860152602485015260448401525af180156101d9576101cb575080f35b6101d791505f906102b3565b005b6040513d5f823e3d90fd5b5f80fd5b633fbfe96d60e01b5f5260045ffd5b346101e4575f3660031901126101e4576040517f00000000000000000000000000000000000000000000000000000000000000006001600160a01b03168152602090f35b346101e45760203660031901126101e4576101d761025761029d565b6102e9565b346101e4575f3660031901126101e4577f00000000000000000000000000000000000000000000000000000000000000006001600160a01b03168152602090f35b600435906001600160a01b03821682036101e457565b90601f8019910116810190811067ffffffffffffffff8211176102d557604052565b634e487b7160e01b5f52604160045260245ffd5b7f00000000000000000000000000000000000000000000000000000000000000006001600160a01b031690338290036101e8576001600160a01b031690813b156101e457604051633ccfd60b60e01b81525f816004818380975af180156101d9576103cd575b50479081156103c8578280809381935af13d156103c3573d67ffffffffffffffff81116103af576040519061038e601f8201601f1916602001836102b3565b81528260203d92013e5b156103a05750565b630428064f60e11b8152600490fd5b634e487b7160e01b83526041600452602483fd5b610398565b505050565b6103da9192505f906102b3565b5f905f61034f56fea264697066735822122019f9f7de9e319fafccc75a6454d874080bcf65155898ce0df5530e33ca1df48164736f6c63430008220033",
  "linkReferences": {},
  "deployedLinkReferences": {},
  "immutableReferences": {
    "279": [
      {
        "length": 32,
        "start": 27
      },
      {
        "length": 32,
        "start": 2957
      },
      {
        "length": 32,
        "start": 9052
      },
      {
        "length": 32,
        "start": 17098
      }
    ],
    "286": [
      {
        "length": 32,
        "start": 157
      },
      {
        "length": 32,
        "start": 2548
      },
      {
        "length": 32,
        "start": 3330
      },
      {
        "length": 32,
        "start": 17134
      }
    ],
    "293": [
      {
        "length": 32,
        "start": 877
      },
      {
        "length": 32,
        "start": 3963
      },
      {
        "length": 32,
        "start": 14490
      },
      {
        "length": 32,
        "start": 17251
      },
      {
        "length": 32,
        "start": 18552
      },
      {
        "length": 32,
        "start": 18890
      }
    ],
    "297": [
      {
        "length": 32,
        "start": 106
      },
      {
        "length": 32,
        "start": 3895
      },
      {
        "length": 32,
        "start": 12715
      },
      {
        "length": 32,
        "start": 17213
      }
    ],
    "2914": [
      {
        "length": 32,
        "start": 6480
      },
      {
        "length": 32,
        "start": 15981
      }
    ]
  },
  "inputSourceName": "project/contracts/PunksAuction.sol",
  "buildInfoId": "solc-0_8_34-b0f3e19fa750668fdd53ce1eb22e59786c2c82e0"
}