{
  "_format": "hh3-artifact-1",
  "contractName": "PunksAuctionEscrow",
  "sourceName": "contracts/PunksAuctionEscrow.sol",
  "abi": [
    {
      "inputs": [],
      "stateMutability": "nonpayable",
      "type": "constructor"
    },
    {
      "inputs": [],
      "name": "NotAuction",
      "type": "error"
    },
    {
      "inputs": [],
      "name": "ProceedsForwardFailed",
      "type": "error"
    },
    {
      "inputs": [],
      "name": "UnexpectedEtherSender",
      "type": "error"
    },
    {
      "inputs": [],
      "name": "AUCTION",
      "outputs": [
        {
          "internalType": "address",
          "name": "",
          "type": "address"
        }
      ],
      "stateMutability": "view",
      "type": "function"
    },
    {
      "inputs": [],
      "name": "PUNKS",
      "outputs": [
        {
          "internalType": "contract ICryptoPunksMarket",
          "name": "",
          "type": "address"
        }
      ],
      "stateMutability": "view",
      "type": "function"
    },
    {
      "inputs": [],
      "name": "PUNKS_V1",
      "outputs": [
        {
          "internalType": "contract ICryptoPunksMarket",
          "name": "",
          "type": "address"
        }
      ],
      "stateMutability": "view",
      "type": "function"
    },
    {
      "inputs": [
        {
          "internalType": "address",
          "name": "market",
          "type": "address"
        },
        {
          "internalType": "uint256",
          "name": "punkIndex",
          "type": "uint256"
        },
        {
          "internalType": "uint96",
          "name": "hammerWei",
          "type": "uint96"
        }
      ],
      "name": "listForSettlement",
      "outputs": [],
      "stateMutability": "nonpayable",
      "type": "function"
    },
    {
      "inputs": [
        {
          "internalType": "address",
          "name": "market",
          "type": "address"
        }
      ],
      "name": "sweepProceeds",
      "outputs": [],
      "stateMutability": "nonpayable",
      "type": "function"
    },
    {
      "stateMutability": "payable",
      "type": "receive"
    }
  ],
  "bytecode": "0x60e080604052346101255773b47e3cd837ddf8e4c57f05d70ab865de6e193bbb60a052736ba6f2207e343923ba692e5cae646fb0f566db8d60c0523360805263c47f002760e01b8152602060048201819052601760248301527f657363726f772e70756e6b7361756374696f6e2e6574680000000000000000006044830152816064815f73a58e81fe9b61b5c3fe2afd33cf304c454abfc7cb5af18015610145576100e8575b604051610418908161015182396080518181816101500152818161020c01526102eb015260a051818181601d015261026e015260c0518181816066015260e90152f35b6020903d60201161013d575b601f8201601f19168101916001600160401b038311828410176101295760209260405281010312610125575f6100a5565b5f80fd5b634e487b7160e01b5f52604160045260245ffd5b3d91506100f4565b6040513d5f823e3d90fdfe6080806040526004361015610095575b50361561001a575f80fd5b337f00000000000000000000000000000000000000000000000000000000000000006001600160a01b0316141580610062575b61005357005b6338695c1960e21b5f5260045ffd5b50337f00000000000000000000000000000000000000000000000000000000000000006001600160a01b0316141561004d565b5f905f3560e01c90816330da111a1461025c575080633341fddb1461023b57806363779c74146101f7578063ab4a1fb01461011b5763f0a2c2450361000f57346101185780600319360112610118576040517f00000000000000000000000000000000000000000000000000000000000000006001600160a01b03168152602090f35b80fd5b50346101e45760603660031901126101e45761013561029d565b6044356bffffffffffffffffffffffff81168091036101e4577f00000000000000000000000000000000000000000000000000000000000000006001600160a01b031691338390036101e8576001600160a01b031691823b156101e45760645f9283604051958694859363bf31196f60e01b85526024356004860152602485015260448401525af180156101d9576101cb575080f35b6101d791505f906102b3565b005b6040513d5f823e3d90fd5b5f80fd5b633fbfe96d60e01b5f5260045ffd5b346101e4575f3660031901126101e4576040517f00000000000000000000000000000000000000000000000000000000000000006001600160a01b03168152602090f35b346101e45760203660031901126101e4576101d761025761029d565b6102e9565b346101e4575f3660031901126101e4577f00000000000000000000000000000000000000000000000000000000000000006001600160a01b03168152602090f35b600435906001600160a01b03821682036101e457565b90601f8019910116810190811067ffffffffffffffff8211176102d557604052565b634e487b7160e01b5f52604160045260245ffd5b7f00000000000000000000000000000000000000000000000000000000000000006001600160a01b031690338290036101e8576001600160a01b031690813b156101e457604051633ccfd60b60e01b81525f816004818380975af180156101d9576103cd575b50479081156103c8578280809381935af13d156103c3573d67ffffffffffffffff81116103af576040519061038e601f8201601f1916602001836102b3565b81528260203d92013e5b156103a05750565b630428064f60e11b8152600490fd5b634e487b7160e01b83526041600452602483fd5b610398565b505050565b6103da9192505f906102b3565b5f905f61034f56fea26469706673582212201ce4c7b05dbf13d9000120672de81c9315573a262801f87af858d669daf2be4d64736f6c63430008220033",
  "linkReferences": {},
  "deployedLinkReferences": {},
  "immutableReferences": {
    "13": [
      {
        "length": 32,
        "start": 336
      },
      {
        "length": 32,
        "start": 524
      },
      {
        "length": 32,
        "start": 747
      }
    ],
    "20": [
      {
        "length": 32,
        "start": 29
      },
      {
        "length": 32,
        "start": 622
      }
    ],
    "27": [
      {
        "length": 32,
        "start": 102
      },
      {
        "length": 32,
        "start": 233
      }
    ]
  },
  "inputSourceName": "project/contracts/PunksAuctionEscrow.sol",
  "buildInfoId": "solc-0_8_34-075cc1967674e4c6ebb123d061f8662c0151f90f"
}