{
  "_format": "hh3-artifact-1",
  "contractName": "UnwrapV1Punks",
  "sourceName": "contracts/UnwrapV1Punks.sol",
  "abi": [
    {
      "inputs": [],
      "stateMutability": "nonpayable",
      "type": "constructor"
    },
    {
      "inputs": [],
      "name": "NoPunkIds",
      "type": "error"
    },
    {
      "inputs": [],
      "name": "NotPunkOwner",
      "type": "error"
    },
    {
      "anonymous": false,
      "inputs": [
        {
          "indexed": true,
          "internalType": "address",
          "name": "caller",
          "type": "address"
        },
        {
          "indexed": false,
          "internalType": "uint16[]",
          "name": "punkIds",
          "type": "uint16[]"
        }
      ],
      "name": "PunksUnwrapped",
      "type": "event"
    },
    {
      "inputs": [],
      "name": "PUNKS_V1",
      "outputs": [
        {
          "internalType": "contract ICryptoPunksMarket",
          "name": "",
          "type": "address"
        }
      ],
      "stateMutability": "view",
      "type": "function"
    },
    {
      "inputs": [],
      "name": "WRAPPER",
      "outputs": [
        {
          "internalType": "contract IPunksV1Wrapper",
          "name": "",
          "type": "address"
        }
      ],
      "stateMutability": "view",
      "type": "function"
    },
    {
      "inputs": [
        {
          "internalType": "uint16[]",
          "name": "punkIds",
          "type": "uint16[]"
        }
      ],
      "name": "unwrap",
      "outputs": [],
      "stateMutability": "nonpayable",
      "type": "function"
    }
  ],
  "bytecode": "0x60c0806040523461010b5773282bdd42f4eb70e7a9d9f40c8fea0825b7f68c5d608052736ba6f2207e343923ba692e5cae646fb0f566db8d60a05263c47f002760e01b8152602060048201819052601660248301527f756e777261702e70756e6b736d61726b65742e657468000000000000000000006044830152816064815f73a58e81fe9b61b5c3fe2afd33cf304c454abfc7cb5af1801561012b576100ce575b6040516103a2908161013782396080518181816097015261014d015260a051818181604f01526101280152f35b6020903d602011610123575b601f8201601f19168101916001600160401b0383118284101761010f576020926040528101031261010b575f6100a1565b5f80fd5b634e487b7160e01b5f52604160045260245ffd5b3d91506100da565b6040513d5f823e3d90fdfe60806040526004361015610011575f80fd5b5f3560e01c806337bd39ba146100c6578063e1eb13c1146100825763f0a2c2451461003a575f80fd5b3461007e575f36600319011261007e576040517f00000000000000000000000000000000000000000000000000000000000000006001600160a01b03168152602090f35b5f80fd5b3461007e575f36600319011261007e576040517f00000000000000000000000000000000000000000000000000000000000000006001600160a01b03168152602090f35b3461007e57602036600319011261007e5760043567ffffffffffffffff811161007e573660238201121561007e5780600401359067ffffffffffffffff821161007e573660248360051b8301011161007e578115610327576001600160a01b037f0000000000000000000000000000000000000000000000000000000000000000811692917f0000000000000000000000000000000000000000000000000000000000000000909116905f5b838110156102b85760248160051b830101359061ffff821680920361007e576040516331a9108f60e11b815260048101839052602081602481885afa90811561024d575f91610277575b50336001600160a01b039091160361026857833b1561007e57604051636f074d1f60e11b8152600481018390525f8160248183895af1801561024d57610258575b50853b1561007e57604051916322dca8bb60e21b835233600484015260248301525f82604481838a5af191821561024d5760019261023d575b5001610172565b5f61024791610336565b86610236565b6040513d5f823e3d90fd5b5f61026291610336565b866101fd565b6387ee28d960e01b5f5260045ffd5b90506020813d82116102b0575b8161029160209383610336565b8101031261007e57516001600160a01b038116810361007e57876101bc565b3d9150610284565b506040805160208082528101859052908101916024015f855b80821061030157337f28d7540a600bf15beaec67e0283a0ed34307e186587d755148408909655fcf0485870386a2005b90919384359061ffff821680920361007e576020816001938293520195019201906102d1565b63b7e1a80760e01b5f5260045ffd5b90601f8019910116810190811067ffffffffffffffff82111761035857604052565b634e487b7160e01b5f52604160045260245ffdfea264697066735822122000358778beb545f7cccb882883df85402bcf5b6ddc5b3c2059c4dad0bd46124364736f6c63430008220033",
  "linkReferences": {},
  "deployedLinkReferences": {},
  "immutableReferences": {
    "12": [
      {
        "length": 32,
        "start": 151
      },
      {
        "length": 32,
        "start": 333
      }
    ],
    "19": [
      {
        "length": 32,
        "start": 79
      },
      {
        "length": 32,
        "start": 296
      }
    ]
  },
  "inputSourceName": "project/contracts/UnwrapV1Punks.sol",
  "buildInfoId": "solc-0_8_34-0daec85b914219e65d74c097d477b7e38e81b741"
}