{
  "_format": "hh3-artifact-1",
  "contractName": "PunksRenderer",
  "sourceName": "contracts/PunksRenderer.sol",
  "abi": [
    {
      "inputs": [
        {
          "internalType": "address",
          "name": "punksData",
          "type": "address"
        },
        {
          "internalType": "address",
          "name": "punksMarket",
          "type": "address"
        },
        {
          "internalType": "address",
          "name": "wrapper",
          "type": "address"
        },
        {
          "internalType": "address",
          "name": "c721Wrapper",
          "type": "address"
        },
        {
          "internalType": "address",
          "name": "reverseRegistrar",
          "type": "address"
        },
        {
          "internalType": "string",
          "name": "reverseName",
          "type": "string"
        }
      ],
      "stateMutability": "nonpayable",
      "type": "constructor"
    },
    {
      "inputs": [],
      "name": "InvalidBackground",
      "type": "error"
    },
    {
      "inputs": [],
      "name": "InvalidTokenId",
      "type": "error"
    },
    {
      "inputs": [],
      "name": "C721_WRAPPER",
      "outputs": [
        {
          "internalType": "address",
          "name": "",
          "type": "address"
        }
      ],
      "stateMutability": "view",
      "type": "function"
    },
    {
      "inputs": [],
      "name": "PUNKS_DATA",
      "outputs": [
        {
          "internalType": "contract IPunksData",
          "name": "",
          "type": "address"
        }
      ],
      "stateMutability": "view",
      "type": "function"
    },
    {
      "inputs": [],
      "name": "PUNKS_MARKET",
      "outputs": [
        {
          "internalType": "contract IPunksMarket",
          "name": "",
          "type": "address"
        }
      ],
      "stateMutability": "view",
      "type": "function"
    },
    {
      "inputs": [],
      "name": "WRAPPER",
      "outputs": [
        {
          "internalType": "address",
          "name": "",
          "type": "address"
        }
      ],
      "stateMutability": "view",
      "type": "function"
    },
    {
      "inputs": [
        {
          "internalType": "uint16",
          "name": "punkId",
          "type": "uint16"
        }
      ],
      "name": "backgroundOf",
      "outputs": [
        {
          "internalType": "bytes4",
          "name": "",
          "type": "bytes4"
        }
      ],
      "stateMutability": "view",
      "type": "function"
    },
    {
      "inputs": [],
      "name": "dataContract",
      "outputs": [
        {
          "internalType": "address",
          "name": "",
          "type": "address"
        }
      ],
      "stateMutability": "view",
      "type": "function"
    },
    {
      "inputs": [
        {
          "internalType": "uint16",
          "name": "punkId",
          "type": "uint16"
        }
      ],
      "name": "metadataJson",
      "outputs": [
        {
          "internalType": "string",
          "name": "",
          "type": "string"
        }
      ],
      "stateMutability": "view",
      "type": "function"
    },
    {
      "inputs": [
        {
          "internalType": "uint16",
          "name": "punkId",
          "type": "uint16"
        }
      ],
      "name": "punkAttributes",
      "outputs": [
        {
          "internalType": "string",
          "name": "csv",
          "type": "string"
        }
      ],
      "stateMutability": "view",
      "type": "function"
    },
    {
      "inputs": [
        {
          "internalType": "uint16",
          "name": "punkId",
          "type": "uint16"
        }
      ],
      "name": "punkImage",
      "outputs": [
        {
          "internalType": "bytes",
          "name": "rgba",
          "type": "bytes"
        }
      ],
      "stateMutability": "view",
      "type": "function"
    },
    {
      "inputs": [
        {
          "internalType": "uint16",
          "name": "punkId",
          "type": "uint16"
        }
      ],
      "name": "punkMarketplacePng",
      "outputs": [
        {
          "internalType": "bytes",
          "name": "",
          "type": "bytes"
        }
      ],
      "stateMutability": "view",
      "type": "function"
    },
    {
      "inputs": [
        {
          "internalType": "uint16",
          "name": "punkId",
          "type": "uint16"
        }
      ],
      "name": "punkMarketplaceSvg",
      "outputs": [
        {
          "internalType": "string",
          "name": "",
          "type": "string"
        }
      ],
      "stateMutability": "view",
      "type": "function"
    },
    {
      "inputs": [
        {
          "internalType": "uint16",
          "name": "punkId",
          "type": "uint16"
        },
        {
          "internalType": "bytes4",
          "name": "backgroundRgba",
          "type": "bytes4"
        }
      ],
      "name": "punkPng",
      "outputs": [
        {
          "internalType": "bytes",
          "name": "",
          "type": "bytes"
        }
      ],
      "stateMutability": "view",
      "type": "function"
    },
    {
      "inputs": [
        {
          "internalType": "uint16",
          "name": "punkId",
          "type": "uint16"
        }
      ],
      "name": "punkPng",
      "outputs": [
        {
          "internalType": "bytes",
          "name": "",
          "type": "bytes"
        }
      ],
      "stateMutability": "view",
      "type": "function"
    },
    {
      "inputs": [
        {
          "internalType": "uint16",
          "name": "punkId",
          "type": "uint16"
        }
      ],
      "name": "punkSvg",
      "outputs": [
        {
          "internalType": "string",
          "name": "",
          "type": "string"
        }
      ],
      "stateMutability": "view",
      "type": "function"
    },
    {
      "inputs": [
        {
          "internalType": "uint256",
          "name": "tokenId",
          "type": "uint256"
        }
      ],
      "name": "tokenURI",
      "outputs": [
        {
          "internalType": "string",
          "name": "",
          "type": "string"
        }
      ],
      "stateMutability": "view",
      "type": "function"
    }
  ],
  "bytecode": "0x610100806040523461020157613b7e803803809161001d8285610235565b833981019060c0818303126102015761003581610258565b9061004260208201610258565b61004e60408301610258565b61005a60608401610258565b9161006760808501610258565b60a085015190946001600160401b03821161020157019486601f870112156102015785516001600160401b03811161022157604051966100b1601f8301601f191660200189610235565b81885260208801986020838301011161020157815f9260208093018b5e880101526001600160a01b0390811660805290811660a05260c09190915260e091909152169182151580610217575b610188575b604051613911908161026d823960805181818161013c0152818161099701528181610f9301528181611205015281816112fb0152818161135e015281816114da015281816115a60152818161171d01526124bc015260a05181818160d6015261225d015260c0518181816109350152612353015260e051818181611479015261232b0152f35b6044926020925f60405195868095819463c47f002760e01b83528860048401525180918160248501528484015e8181018301849052601f01601f191681010301925af1801561020c576101dd575b8080610102565b602090813d8311610205575b6101f38183610235565b81010312610201575f6101d6565b5f80fd5b503d6101e9565b6040513d5f823e3d90fd5b50815115156100fd565b634e487b7160e01b5f52604160045260245ffd5b601f909101601f19168101906001600160401b0382119082101761022157604052565b51906001600160a01b03821682036102015756fe6080806040526004361015610012575f80fd5b5f3560e01c9081630d66881814611594575080632729e4e3146114a857806337de18a8146114645780633e5e0a961461132a5780634ed9a045146112e65780635d4719ce146112c257806365343d6f146111af57806376dfe29714610f5c57806396d37d0214610f26578063b8426f4114610f02578063c87b56dd14610e57578063db3a1d8d14610964578063e1eb13c114610920578063e8b7e177146101095763fade5737146100c1575f80fd5b34610105575f366003190112610105576040517f00000000000000000000000000000000000000000000000000000000000000006001600160a01b03168152602090f35b5f80fd5b34610105576020366003190112610105576101226115d5565b6040516336afc5f360e11b815261ffff90911660048201527f00000000000000000000000000000000000000000000000000000000000000006001600160a01b0316905f81602481855afa9081156108dc575f91610906575b50604051630ab3970960e11b8152905f82600481865afa9182156108dc575f926108e7575b505f6004929360405193848092634016c55b60e01b82525afa9182156108dc575f926108b4575b506101d190612fdd565b90825180600c01600c116107ed57602d01806021116107ed578151600c0180600c116107ed576102009161288c565b8251600c0180600c116107ed576102169161288c565b600c81018091116107ed5761022a906116bd565b916102336131a1565b916102506102408561320b565b84610249613239565b918761329a565b85519560e087901b6001600160f81b0319165f1a61026e8388612835565b53600182018083116107ed5761029060ff60f81b8960e81b165f1a9188612835565b53600282018083116107ed576102b260ff60f81b8960f01b165f1a9188612835565b53600382018083116107ed576102d460ff60f81b8960f81b165f1a9188612835565b5360048201908183116107ed5760506102ed8389612835565b53600583018084116107ed57610305604c9189612835565b53600683018084116107ed5761031d60549189612835565b5360078301908184116107ed5760456103378a938a612835565b53816108a3575b5050866004016004116107ed5763ffffffff6008888401015b808310610881575063ffffffff91501895600882018092116107ed5761037c9161288c565b9460e081901b6001600160f81b0319165f1a6103988787612835565b53600186018087116107ed5760e882901b6001600160f81b0319165f1a906103c09087612835565b53600286018087116107ed5760f082901b6001600160f81b0319165f1a906103e89087612835565b5360038601908187116107ed5760f81b6001600160f81b0319165f1a9061040f9086612835565b5360048501908186116107ed5780519060e082901b6001600160f81b0319165f1a61043a8488612835565b53600587018084116107ed5761045c60ff60f81b8460e81b165f1a9188612835565b53600687018084116107ed5761047e60ff60f81b8460f01b165f1a9188612835565b53600787018084116107ed576104a060ff60f81b8460f81b165f1a9188612835565b5360088701908184116107ed5760746104b98389612835565b53600988018085116107ed576104d160529189612835565b53600a88018085116107ed576104e9604e9189612835565b53600b8801908185116107ed57605361050385938a612835565b5381610870575b5050816004016004116107ed5763ffffffff90600c888401015b80821061084157505063ffffffff600c911896018092116107ed576105489161288c565b9360e081901b6001600160f81b0319165f1a6105648686612835565b53600185018086116107ed5760e882901b6001600160f81b0319165f1a9061058c9086612835565b53600285018086116107ed5760f082901b6001600160f81b0319165f1a906105b49086612835565b5360038501908186116107ed5760f81b6001600160f81b0319165f1a906105db9085612835565b5360048401908185116107ed5780519060e082901b6001600160f81b0319165f1a6106068487612835565b53600586018084116107ed5761062860ff60f81b8460e81b165f1a9187612835565b53600686018084116107ed5761064a60ff60f81b8460f01b165f1a9187612835565b53600786018084116107ed5761066c60ff60f81b8460f81b165f1a9187612835565b5360088601908184116107ed5760496106858388612835565b53600987018085116107ed5761069d60449188612835565b53600a87018085116107ed576106b560419188612835565b53600b8701908185116107ed5760546106cf859389612835565b5381610830575b5050816004016004116107ed5763ffffffff90600c878401015b80821061080157505063ffffffff600c911895018092116107ed576107149161288c565b9260e081901b6001600160f81b0319165f1a6107308585612835565b53600184018085116107ed5760e882901b6001600160f81b0319165f1a906107589085612835565b53600284018085116107ed5760f082901b6001600160f81b0319165f1a906107809085612835565b5360038401908185116107ed5760f81b6001600160f81b0319165f1a906107a79084612835565b53600483018093116107ed576040516107e9936107d392906107ca60208461160a565b5f8352846134a5565b81526040519182916020835260208301906115e6565b0390f35b634e487b7160e01b5f52601160045260245ffd5b909160019061082260ff610815868b612835565b5160f81c8318168861318f565b519060081c189201906106f0565b602001602c878901015e81876106d6565b909160019061086260ff610855868c612835565b5160f81c8318168961318f565b519060081c18920190610524565b602001602c888a01015e818861050a565b9060019061089460ff610855868c612835565b519060081c1892019190610357565b6020016028848901015e868861033e565b6101d19192506108d5903d805f833e6108cd818361160a565b81019061165c565b91906101c7565b6040513d5f823e3d90fd5b600492506108ff5f913d8084833e6108cd818361160a565b92506101a0565b61091a91503d805f833e6108cd818361160a565b8261017b565b34610105575f366003190112610105576040517f00000000000000000000000000000000000000000000000000000000000000006001600160a01b03168152602090f35b346101055760203660031901126101055761097d6115d5565b6040516336afc5f360e11b815261ffff82166004820152907f00000000000000000000000000000000000000000000000000000000000000006001600160a01b0316905f83602481855afa9182156108dc576004935f93610e39575b505f9060405194858092636eb5f57960e01b82525afa9283156108dc575f93610e19575b50610a079061225b565b91616020610b326020610b1860405196610a21858961160a565b616000885282880194601f1901368637607e610a3b612f8d565b9560405190610a4b60a08361160a565b8282527f77696474683d27323427206865696768743d273234272066696c6c3d272300006080878401937f3c73766720786d6c6e733d27687474703a2f2f7777772e77332e6f72672f323085527f30302f737667272076696577426f783d2730203020323420323427207368617060408201527f652d72656e646572696e673d2763726973704564676573273e0a3c7265637420606082015201525e8460ff610b0c610afe8b84607e8760f81c926136a1565b83838660f01c16918d6136a1565b9260e81c1691896136a1565b610b20612fbb565b8051928391016020838a01015e61288c565b915f936040945b60188110610b8a576107e98787610b7688600660208451610b5a868261160a565b82815201651e17b9bb339f60d11b81526020838701015e61287e565b8252519182916020835260208301906115e6565b60188102818104601814821517156107ed575f5b60188110610bb0575050600101610b39565b91610bcb610bc584849799949a98969a61288c565b89612835565b51928360f81c958615610e0657815b6018811080610dee575b15610bf157600101610bda565b9897969299939594919095818a03908a82116107ed57602060148e828f610cc66103fc98978f92610c93610cc091610c8d610c648e9d610c5e8e610cfc9f8d8d600992818f610c428151918261160a565b8581520192683c7265637420783d2760b81b845201015e612846565b8b61370d565b6005898951610c738b8261160a565b82815201642720793d2760d81b81528a838d01015e612854565b8861370d565b6009868651610ca2888261160a565b8281520168272077696474683d2760b81b815287838a01015e612846565b8561370d565b9481610cd5879351918261160a565b85815201927327206865696768743d2731272066696c6c3d272360601b845201015e612862565b9260f61c16169182046004036107ed57610d269084610d1b848a612835565b5160f81c918c6136a1565b60018201908183116107ed5784610d1b610d40938a612835565b60028201908183116107ed5784610d1b610d5a938a612835565b90600381018091116107ed57610d7260ff9188612835565b5160f81c03610da9576020610d9b91610d89612fbb565b8b83838351958694019201015e61288c565b959691949396929092610b9e565b610de990601660208751610dbd898261160a565b828152017513903334b63616b7b830b1b4ba3c9e93971a93979f0560511b81526020838d01015e612870565b610d9b565b5087610dfc8284018d612835565b5160f81c14610be4565b9493506001919892979695500195610d9b565b610a07919350610e32903d805f833e6108cd818361160a565b92906109fd565b5f919350610e50903d8084833e6108cd818361160a565b92906109d9565b3461010557602036600319011261010557600435612710811015610ef3576020610edf603d610e94610e8f61ffff6107e996166116ef565b6137a6565b6040519384917f646174613a6170706c69636174696f6e2f6a736f6e3b6261736536342c000000828401528051918291018484015e81015f838201520301601f19810183528261160a565b6040519182916020835260208301906115e6565b6307ed98ed60e31b5f5260045ffd5b34610105576020366003190112610105576107e9610edf610f216115d5565b6124a1565b34610105576020366003190112610105576020610f49610f446115d5565b61225b565b6040516001600160e01b03199091168152f35b3461010557602036600319011261010557610f756115d5565b604051631609ee8560e11b815261ffff9190911660048201819052907f00000000000000000000000000000000000000000000000000000000000000006001600160a01b031690602081602481855afa9081156108dc575f91611180575b50600b81101561116c5760ff610fe99116612227565b61ffff604051916322ff0e5d60e01b83521660048201525f81602481855afa9081156108dc575f91611152575b509160405190631a4b396760e11b82526004820152602081602481855afa9081156108dc575f91611120575b506018925b61ffff8416606f81101561110a576001811b8316156110fd57604051906322ff0e5d60e01b825260048201525f81602481875afa9182156108dc576110d96002602092838061ffff976001975f916110e3575b506040519684889551918291018487015e84019061016160f51b83830152805192839101602283015e01015f838201520301601f19810183528261160a565b945b011692611047565b6110f791503d805f833e6108cd818361160a565b8c61109a565b5092600161ffff916110db565b604051602080825281906107e9908201856115e6565b90506020813d60201161114a575b8161113b6020938361160a565b81010312610105575183611042565b3d915061112e565b61116691503d805f833e6108cd818361160a565b83611016565b634e487b7160e01b5f52602160045260245ffd5b6111a2915060203d6020116111a8575b61119a818361160a565b81019061220f565b83610fd3565b503d611190565b34610105576040366003190112610105576111c86115d5565b602435906001600160e01b0319821682036101055760ff808360e01c16036112b3576040516336afc5f360e11b815261ffff9190911660048201527f00000000000000000000000000000000000000000000000000000000000000006001600160a01b0316915f82602481865afa9182156108dc575f92611294575b505f6004929360405193848092636eb5f57960e01b82525afa80156108dc576107e993610edf935f92611278575b506128a7565b61128d9192503d805f833e6108cd818361160a565b9085611272565b600492506112ac5f913d8084833e6108cd818361160a565b9250611244565b630f03bacb60e21b5f5260045ffd5b34610105576020366003190112610105576107e9610edf6112e16115d5565b6116ef565b34610105575f366003190112610105576040517f00000000000000000000000000000000000000000000000000000000000000006001600160a01b03168152602090f35b34610105576020366003190112610105576113436115d5565b6040516336afc5f360e11b815261ffff9190911660048201527f00000000000000000000000000000000000000000000000000000000000000006001600160a01b03165f82602481845afa9081156108dc576004925f92611446575b505f9060405193848092636eb5f57960e01b82525afa9182156108dc575f9261142a575b50604051916109206113d5818561160a565b6109008452601f19013660208501375f5b610240811061140557604051602080825281906107e9908201876115e6565b806004602080600194870101515f1a60021b85010160208360021b8801015e016113e6565b61143f9192503d805f833e6108cd818361160a565b90826113c3565b5f91925061145d903d8084833e6108cd818361160a565b919061139f565b34610105575f366003190112610105576040517f00000000000000000000000000000000000000000000000000000000000000006001600160a01b03168152602090f35b34610105576020366003190112610105576114c16115d5565b6040516336afc5f360e11b815261ffff821660048201527f00000000000000000000000000000000000000000000000000000000000000006001600160a01b03165f82602481845afa9081156108dc576004925f92611576575b505f9060405193848092636eb5f57960e01b82525afa80156108dc576107e993610edf935f92611556575b506115509061225b565b916128a7565b61155091925061156f903d805f833e6108cd818361160a565b9190611546565b5f91925061158d903d8084833e6108cd818361160a565b919061151b565b34610105575f366003190112610105577f00000000000000000000000000000000000000000000000000000000000000006001600160a01b03168152602090f35b6004359061ffff8216820361010557565b805180835260209291819084018484015e5f828201840152601f01601f1916010190565b90601f8019910116810190811067ffffffffffffffff82111761162c57604052565b634e487b7160e01b5f52604160045260245ffd5b67ffffffffffffffff811161162c57601f01601f191660200190565b6020818303126101055780519067ffffffffffffffff8211610105570181601f820112156101055760208151910161169382611640565b926116a1604051948561160a565b8284528282011161010557815f926020928386015e8301015290565b906116c782611640565b6116d4604051918261160a565b82815280926116e5601f1991611640565b0190602036910137565b61ffff6116fb826124a1565b91169061170782613606565b604051631b1c96c560e01b8152600481018490527f00000000000000000000000000000000000000000000000000000000000000006001600160a01b0316939190602081602481885afa80156108dc5760ff915f916121f0575b50169061176d82613606565b958260100161ffff81116107ed5761ffff6040519163017a8d2560e11b83521660048201526020816024818a5afa80156108dc5761ffff6117ba916117c0935f916121d1575b5016613606565b956137a6565b946040519363c5542ab760e01b85528560048601526020856024818b5afa9485156108dc575f95612194575b50600585101561116c57604051631609ee8560e11b8152600481018790526020816024818c5afa9081156108dc575f91612175575b50600b81101561116c5760405163e13d8da160e01b815260048101889052916020836024818d5afa9081156108dc576024935f92612144575b5060208b60405195868092634a69ff2160e11b82528d60048301525afa9081156108dc578b945f92612123575b5060208a602460405180988193631a4b396760e11b835260048301525afa9889156108dc578c955f9a6120e9575b5060ff60245f9260405198899384926322ff0e5d60e01b84521660048301525afa9384156108dc578c955f956120bd575b5061ffff60246118f960ff5f9416612227565b60405198899384926322ff0e5d60e01b84521660048301525afa9485156108dc575f9561209d575b5061192b90613606565b9160ff1661193890613606565b9061ffff1661194690613606565b91604051948594602086017f5b7b2274726169745f74797065223a2254797065222c2276616c7565223a2200905280516020819201603f88015e8501603f81017f227d2c7b2274726169745f74797065223a22486561642056617269616e74222c905268113b30b63ab2911d1160b91b605f82015281516020819301606883015e01603f01602981017f227d2c7b22646973706c61795f74797065223a226e756d626572222c227472619052604981017f69745f74797065223a2241747472696275746520436f756e74222c2276616c7590526232911d60e91b606982015281516020819301606c83015e01602901604381017f7d2c7b22646973706c61795f74797065223a226e756d626572222c22747261699052606381017f745f74797065223a22436f6c6f7220436f756e74222c2276616c7565223a0000905281516020819301608183015e01604301603e81017f7d2c7b22646973706c61795f74797065223a226e756d626572222c22747261699052605e81017f745f74797065223a22506978656c20436f756e74222c2276616c7565223a0000905281516020819301607c83015e01603e01603e8101607d60f81b905203603e01601e1981018252600101611b14908261160a565b976018985b61ffff8a16606f811015611c0c576001811b871615611bff57604051906322ff0e5d60e01b825260048201525f816024818d5afa9081156108dc57611bdb6002602461ffff9560208060019781975f91611be5575b506040519784899551918291018487015e8401907f2c7b2274726169745f74797065223a224163636573736f7279222c2276616c75838301526332911d1160e11b6040830152805192839101604483015e010161227d60f01b838201520301601d1981018452018261160a565b9a5b011698611b19565b611bf991503d805f833e6108cd818361160a565b5f611b6e565b5098600161ffff91611bdd565b506020809499959a50611c4c9297939896506001916040519581879251918291018484015e8101605d60f81b838201520301601e1981018552018361160a565b60405190630e2382e560e01b82526004820152602081602481865afa9081156108dc575f9161206b575b50604051633735bb9f60e21b815296602088600481875afa9384156108dc576004985f95612038575b505f90604051998a8092636eb5f57960e01b82525afa9788156108dc575f9861201c575b50611ccc612f8d565b95600c61ffff86160261ffff86168104600c1461ffff87161517156107ed57600201806002116107ed57611cff906116bd565b996001946001978c511561200857605b60208e9a989a01536001985b61ffff8a169061ffff8a16821015611e7957908e916001821b891615611e69578015611e4d57506023611d6f5f9a5b6022611d5f611d5883612899565b9287612835565b53611d6981612899565b94612835565b53806203fffc8c60021b1604600414901517156107ed578d8b611daa928f611da0906203fffc8f60021b1690612835565b5160f81c926136a1565b60028a901b6203fffc1660018101919082106107ed578b8f918f611dd194611da091612835565b60028a811b6203fffc16908101106107ed578d8b611e00928f611da09060028f6203fffc90821b160190612835565b60028a901b6203fffc16600381019081106107ed578e9a60228f611e338f8f9061ffff97611da0600198611e4296612835565b611e3c81612899565b9e612835565b535b01169896611d1b565b98611d6f81602c611e63611d5860239593612899565b53611d4a565b989a61ffff925060019150611e44565b505096509650979392509750979450611e9181612899565b90611e9c9086612835565b605d905384526040519586957303d913730b6b2911d1121b93cb83a37a83ab735960651b602088015280516020819201603489015e8601603481017f222c226465736372697074696f6e223a22546869732050756e6b206861732000905281516020819301605383015e01603401601f81017301030ba3a3934b13aba32b9961037b7329037b3160651b905281516020819301603383015e01601f0171081dda5d1a081d1a185d081b585b9e4b888b60721b6014820152602681017f22696d616765223a22646174613a696d6167652f7376672b786d6c3b62617365905260468101620d8d0b60ea1b905281516020819301604983015e016014016e11161130ba3a3934b13aba32b9911d60891b603582015281516020819301604483015e0160350169161131b7b637b939911d60b11b600f82015281516020819301601983015e01600f01600a8101607d60f81b905203600a01601e1981018252600101612005908261160a565b90565b634e487b7160e01b5f52603260045260245ffd5b6120319198503d805f833e6108cd818361160a565b965f611cc3565b5f91955061205d9060203d602011612064575b612055818361160a565b810190612f73565b9490611c9f565b503d61204b565b90506020813d602011612095575b816120866020938361160a565b8101031261010557515f611c76565b3d9150612079565b61192b9195506120b6903d805f833e6108cd818361160a565b9490611921565b5f91955060246118f960ff6120de61ffff943d8088833e6108cd818361160a565b9894505050506118e6565b955098506020853d60201161211b575b816121066020938361160a565b81010312610105579351978b949060ff6118b5565b3d91506120f9565b61213d91925060203d60201161206457612055818361160a565b905f611887565b61216791925060203d60201161216e575b61215f818361160a565b810190612f5a565b905f61185a565b503d612155565b61218e915060203d6020116111a85761119a818361160a565b5f611821565b9094506020813d6020116121c9575b816121b06020938361160a565b810103126101055751600581101561010557935f6117ec565b3d91506121a3565b6121ea915060203d60201161206457612055818361160a565b5f6117b3565b612209915060203d60201161216e5761215f818361160a565b5f611761565b908160209103126101055751600b8110156101055790565b61ffff166005019061ffff82116107ed57565b5190811515820361010557565b51906001600160a01b038216820361010557565b7f00000000000000000000000000000000000000000000000000000000000000006001600160a01b03169081156124935761ffff6040519163088f11f360e01b8352169081600482015260a081602481865afa9081156108dc575f9161243f575b5061243157604051636e743fa960e01b815260048101829052608081602481865afa9081156108dc575f916123ea575b506123dc57602090602460405180948193630b02f02d60e31b835260048301525afa9081156108dc575f916123a2575b506001600160a01b03908116907f0000000000000000000000000000000000000000000000000000000000000000168114612396577f00000000000000000000000000000000000000000000000000000000000000006001600160a01b03161461238b5763638596ff60e01b90565b6366a670ff60e01b90565b506375a475ff60e01b90565b90506020813d6020116123d4575b816123bd6020938361160a565b81010312610105576123ce90612247565b5f61231c565b3d91506123b0565b50638970b1ff60e01b919050565b90506080813d608011612429575b816124056080938361160a565b8101031261010557612422604061241b8361223a565b9201612247565b505f6122ec565b3d91506123f8565b50638c5851ff60e01b919050565b905060a0813d60a01161248b575b8161245a60a0938361160a565b810103126101055761248460806124708361223a565b9261247d60408201612247565b5001612247565b505f6122bc565b3d915061244d565b5063638596ff60e01b919050565b6040516336afc5f360e11b815261ffff9190911660048201527f00000000000000000000000000000000000000000000000000000000000000006001600160a01b03165f82602481845afa9081156108dc576004925f92612817575b505f9060405193848092636eb5f57960e01b82525afa9081156108dc576063925f926127f8575b50607e6126296020610b18609661602061262360858761261d6040519c8561254d8f978861160a565b616000875289870190601f1901368237612565612f8d565b9b8c97889586936040519061257b60a08361160a565b8282527f77696474683d27323427206865696768743d273234272066696c6c3d272300008f6080908401937f3c73766720786d6c6e733d27687474703a2f2f7777772e77332e6f72672f323085527f30302f737667272076696577426f783d2730203020323420323427207368617060408201527f652d72656e646572696e673d2763726973704564676573273e0a3c7265637420606082015201525e6136a1565b8c6136a1565b896136a1565b926040925f5b601881106126715750505050906006602061266c936126508151918261160a565b82815201651e17b9bb339f60d11b81526020838601015e61287e565b815290565b60188102818104601814821517156107ed575f905b6018821061269857505060010161262f565b9297986126b46126ae83869a959498979a61288c565b8a612835565b51938460f81c9687156127e45791825b60188110806127cc575b156126db576001016126c4565b99969792909b9a95919394818b038b81116107ed57602060148e828e610cc661272896610cc0610c938f610c8d610c646103fc9e8f9e8060098d8d610c5e94818f610c428151918261160a565b9260f61c16169182046004036107ed576127479087610d1b8489612835565b60018201908183116107ed5787610d1b6127619389612835565b60028201908183116107ed5787610d1b61277b9389612835565b90600381018091116107ed5761279360ff9187612835565b5160f81c036127b25760206127aa91610d89612fbb565b965b90612686565b6127c690601660208951610dbd8b8261160a565b966127ac565b50886127da8483018e612835565b5160f81c146126ce565b909293989596506001919a999450016127ac565b607e919250612810903d805f833e6108cd818361160a565b9190612524565b5f91925061282e903d8084833e6108cd818361160a565b91906124fd565b908151811015612008570160200190565b90600982018092116107ed57565b90600582018092116107ed57565b90601482018092116107ed57565b90601682018092116107ed57565b90600682018092116107ed57565b919082018092116107ed57565b5f1981146107ed5760010190565b90929192604051916128ba60608461160a565b602d835260208301916040368437604051916102606128d9818561160a565b6102408452601f1901366020850137604051916101206128f9818561160a565b6101008452601f1901366020850137600197865115612008576001600160f81b031981165f1a8653865189101561200857600881901b6001600160f81b0319165f1a60218801538651600210156120085760101b6001600160f81b0319165f1a60228701535f5b6102408110612e0d57505050506003850294808604600314901517156107ed5761298c90858452612fdd565b9380600c01600c116107ed57602d01806021116107ed578451600c0180600c116107ed576129b99161288c565b600c81018091116107ed576129cd906116bd565b936129d66131a1565b926129f36129e38761320b565b856129ec613239565b918961329a565b90519260e084901b6001600160f81b0319165f1a612a118389612835565b53600182018083116107ed57612a3360ff60f81b8660e81b165f1a9189612835565b53600282018083116107ed57612a5560ff60f81b8660f01b165f1a9189612835565b53600382018083116107ed57612a7760ff60f81b8660f81b165f1a9189612835565b5360048201908183116107ed576050612a90838a612835565b53600583018084116107ed57612aa8604c918a612835565b53600683018084116107ed57612ac06054918a612835565b5360078301908184116107ed576045612ada87938b612835565b5381612dff575b5050836004016004116107ed5763ffffffff6008858401015b808310612ddd575063ffffffff91501892600882018092116107ed57612b1f9161288c565b9160e081901b6001600160f81b0319165f1a612b3b8488612835565b53600183018084116107ed5760e882901b6001600160f81b0319165f1a90612b639088612835565b53600283018084116107ed5760f082901b6001600160f81b0319165f1a90612b8b9088612835565b5360038301908184116107ed5760f81b6001600160f81b0319165f1a90612bb29087612835565b5360048201908183116107ed5780519060e082901b6001600160f81b0319165f1a612bdd8489612835565b53600584018084116107ed57612bff60ff60f81b8460e81b165f1a9189612835565b53600684018084116107ed57612c2160ff60f81b8460f01b165f1a9189612835565b53600784018084116107ed57612c4360ff60f81b8460f81b165f1a9189612835565b5360088401908184116107ed576049612c5c838a612835565b53600985018085116107ed57612c746044918a612835565b53600a85018085116107ed57612c8c6041918a612835565b53600b8501908185116107ed576054612ca685938b612835565b5381612dcc575b5050816004016004116107ed5763ffffffff90600c858401015b808210612daa57505063ffffffff600c911893018092116107ed57612ceb9161288c565b9060e081901b6001600160f81b0319165f1a612d078387612835565b53600182018083116107ed5760e882901b6001600160f81b0319165f1a90612d2f9087612835565b53600282018083116107ed5760f082901b6001600160f81b0319165f1a90612d579087612835565b5360038201908183116107ed5760f81b6001600160f81b0319165f1a90612d7e9086612835565b53600481018091116107ed57612da69160405191612d9d60208461160a565b5f8352856134a5565b8252565b9091600190612dbe60ff610855868d612835565b519060081c18920190612cc7565b602001602c898701015e815f612cad565b90600190612df060ff610855868d612835565b519060081c1892019190612afa565b6028848a01015e835f612ae1565b612e178184612835565b518060f81c908115612f5057612e2d8287612835565b5160f81c918215612e61575b506001929160f81b6001600160f81b0319165f1a9050612e598288612835565b535b01612960565b929150996103fc80829c60ff60f81b8460f81b165f1a612e81878b612835565b5360f61c16169283046004036107ed576003810292818404600314821517156107ed576001600160f81b0319612eb78287612835565b51165f1a612ec5858c612835565b53600181018082116107ed576001600160f81b031990612ee59087612835565b511660018501908186116107ed57612f00905f1a918c612835565b53600281018091116107ed576001600160f81b031990612f209086612835565b511690600284018094116107ed57600193612f41612f47935f1a918c612835565b53612899565b9990915f612e39565b5050600190612e5b565b90816020910312610105575160ff811681036101055790565b90816020910312610105575161ffff811681036101055790565b60405190612f9c60408361160a565b601082526f181899199a1a9b1b9c1cb0b131b232b360811b6020830152565b60405190612fca60408361160a565b600482526313979f0560e11b6020830152565b6040516102a09291612fef848361160a565b61026382526020820193601f19013685378193825115612008576078905381516001101561200857600160218301538151600210156120085760016022830153815160031015612008576058602383015381516004101561200857600260248301538151600510156120085760a760258301538151600610156120085760fd60268301535f5b60188110613172575061025f91905060015f60075b84811061311f575060101b1791815111156120085760e082901b6001600160f81b0319165f1a61027f820153805161026010156120085760e882901b6001600160f81b0319165f1a610280820153805161026110156120085760f082901b6001600160f81b0319165f1a610281820153805161026210156120085760f89190911b6001600160f81b0319165f1a906102820153565b90916115b082018083116107ed5785811161316b575b80831061314b575061fff180910692069061308a565b91929060019061315b8587612835565b5160f81c01809201930191613135565b5084613135565b806018602081600194028501016028601984028701015e01613075565b906101008110156120085760051b0190565b604051906120006131b2818461160a565b368337815f5b61010081106131c5575050565b805f5b600881106131e65750906001916131df828561318f565b52016131b8565b90600190818116820361320357811c63edb8832018915b016131c8565b811c916131fd565b60089060208060405161321f60408261160a565b84815201916744a8272386850d0560c11b8352015e600890565b6040519061324860408361160a565b600d825260203681840137818051600310156120085760186023820153805160071015612008576018602782015380516008101561200857600860288201538051600910156120085760296003910153565b9183519360ff60f81b8560e01b165f1a6132b48486612835565b53600183018084116107ed576132d660ff60f81b8760e81b165f1a9186612835565b53600283018084116107ed576132f860ff60f81b8760f01b165f1a9186612835565b53600383018084116107ed5761331a60ff60f81b8760f81b165f1a9186612835565b5360048301908184116107ed5760496133338387612835565b53600584018085116107ed5761334b60489187612835565b53600684018085116107ed5761336360449187612835565b5360078401908185116107ed57605261337d889388612835565b5381613494575b5050846004016004116107ed5763ffffffff9060088685010190925b81841061346357505063ffffffff91501892600882018092116107ed576133c69161288c565b9160e081901b6001600160f81b0319165f1a6133e28484612835565b53600183018084116107ed5760e882901b6001600160f81b0319165f1a9061340a9084612835565b53600283018084116107ed5760f082901b6001600160f81b0319165f1a906134329084612835565b53600383018084116107ed576134549160ff60f81b9060f81b165f1a92612835565b53600481018091116107ed5790565b909160019061348460ff613477878a612835565b5160f81c8318168461318f565b519060081c1893019291906133a0565b6020016028858701015e845f613384565b9183519360ff60f81b8560e01b165f1a6134bf8486612835565b53600183018084116107ed576134e160ff60f81b8760e81b165f1a9186612835565b53600283018084116107ed5761350360ff60f81b8760f01b165f1a9186612835565b53600383018084116107ed5761352560ff60f81b8760f81b165f1a9186612835565b5360048301908184116107ed57604961353e8387612835565b53600584018085116107ed5761355660459187612835565b53600684018085116107ed5761356e604e9187612835565b5360078401908185116107ed576044613588889388612835565b53816135f5575b5050846004016004116107ed5763ffffffff9060088685010190925b8184106135d157505063ffffffff91501892600882018092116107ed576133c69161288c565b90916001906135e560ff613477878a612835565b519060081c1893019291906135ab565b6020016028858701015e845f61358f565b801561368157805f81805b613669575061361f816116bd565b925b61362a57505090565b80156107ed575f190190600a810660300190816030116107ed57600a9160f81b6001600160f81b0319165f1a6136608486612835565b53049081613621565b9150613676600a91612899565b910480839291613611565b5060405161369060408261160a565b60018152600360fc1b602082015290565b909290916136e5906001600160f81b03196136c3600485901c600f1683612835565b51165f1a6136d18686612835565b536001600160f81b031992600f1690612835565b5116600183018084116107ed576136fe915f1a92612835565b53600281018091116107ed5790565b9091600a811061377157600a810460300190816030116107ed57600a9160f81b6001600160f81b0319165f1a6137438585612835565b5306603001806030116107ed57600183018084116107ed576136fe9160ff60f81b9060f81b165f1a92612835565b603001806030116107ed5760f81b6001600160f81b0319165f1a90613797908390612835565b53600181018091116107ed5790565b908151156138c5578151600281018091116107ed5760039004600281901b91906001600160fe1b038116036107ed57604051917f4142434445464748494a4b4c4d4e4f505152535455565758595a616263646566601f527f6768696a6b6c6d6e6f707172737475767778797a303132333435363738392b2f603f52602083018480518101602081018051915f82525b808910613889575060209596975090600392915251068060011461387457600214613867575b50808452830101604052565b603d905f1901535f61385b565b50603d90815f1982015360011901535f61385b565b939760036004910198603f8a51818160121c165183538181600c1c16516001840153818160061c16516002840153165160038201530193613835565b90506040516138d560208261160a565b5f81529056fea26469706673582212203183eda4187f5fc3dc936384b99dce092b5c148bb660762f0f09e77afe7790df64736f6c63430008220033",
  "linkReferences": {},
  "deployedLinkReferences": {},
  "immutableReferences": {
    "1964": [
      {
        "length": 32,
        "start": 316
      },
      {
        "length": 32,
        "start": 2455
      },
      {
        "length": 32,
        "start": 3987
      },
      {
        "length": 32,
        "start": 4613
      },
      {
        "length": 32,
        "start": 4859
      },
      {
        "length": 32,
        "start": 4958
      },
      {
        "length": 32,
        "start": 5338
      },
      {
        "length": 32,
        "start": 5542
      },
      {
        "length": 32,
        "start": 5917
      },
      {
        "length": 32,
        "start": 9404
      }
    ],
    "1968": [
      {
        "length": 32,
        "start": 214
      },
      {
        "length": 32,
        "start": 8797
      }
    ],
    "1971": [
      {
        "length": 32,
        "start": 2357
      },
      {
        "length": 32,
        "start": 9043
      }
    ],
    "1974": [
      {
        "length": 32,
        "start": 5241
      },
      {
        "length": 32,
        "start": 9003
      }
    ]
  },
  "inputSourceName": "project/contracts/PunksRenderer.sol",
  "buildInfoId": "solc-0_8_34-6ebfb005992be7418b5a18c4568529146228d48d"
}